:1000000080312828053008007E1480310B1F092814
:100010000A2826282100111D0E280F281B28200041
:10002000111D132814281B28210044088A004308A6
:100030000A00803126282100911D1F28202826280B
:100040002000911D24282528262814287E10090028
:1000500080312A289731ED278031FD009731EC2738
:100060008031EC00EA01EB01A03084000030850013
:100070002C3088315E2080312030840001308500B2
:10008000203088315E2080317E1020008C31252C7C
:10009000200034088039B9003908BE003435B90071
:1000A0003908C400B31F552856285728441444085B
:1000B00003195B285C286B28440A031D602861280B
:1000C00069280030B4000030B3000030B2000030C6
:1000D000B100B31773280030B4000030B300003013
:1000E000B2000030B10038088039B9003908BE06C6
:1000F0003835B9003908C300B71F7F288028812808
:10010000431443080319852886289528430A031DAC
:100110008A288B2893280030B8000030B7000030C0
:10012000B6000030B500B7179D280030B800003089
:10013000B7000030B6000030B50043080319A1280D
:10014000A228A7284408031DA628A728B028003005
:10015000B4000030B3000030B2000030B1009E2A7D
:100160003108B9003908A30037088A317322803179
:1001700020002408CA002308C9004908B900BA01B0
:10018000BB01BC013C08C2003B08C1003A08C000EA
:100190003908BF004A08B900BA01BB01BC013C08DC
:1001A000C8003B08C7003A08C6003908C500320835
:1001B000B9003908A30036088A3173228031200043
:1001C0002408CA002308C9004908B900BA01BB01C4
:1001D000BC013908BF073A08C03D3B08C13D3C0897
:1001E000C23D4A08B900BA01BB01BC013908C507C4
:1001F0003A08C63D3B08C73D3C08C83D3308B90036
:100200003908A30035088A31732280312000240880
:10021000CA002308C9004908B900BA01BB01BC01E2
:100220003908BF073A08C03D3B08C13D3C08C23D04
:100230004A08B900BA01BB01BC013908C5073A0830
:10024000C63D3B08C73D3C08C83D0830BF35C00D22
:10025000C10DC20D890B26293208B9003908A30047
:1002600035088A317322803120002408CA0023080F
:10027000C9004908BF074A08C03D0030C13DC23D22
:100280003108B9003908A30036088A317322803159
:1002900020002408CA002308C9004908BF074A08EB
:1002A000C03D0030C13DC23D0830BF35C00DC10D5D
:1002B000C20D890B55293108B9003908A30035084A
:1002C0008A317322803120002408CA002308C90023
:1002D0004908BF074A08C03D0030C13DC23D320851
:1002E000B9003908A30037088A3173228031200011
:1002F0002408CA002308C9004908C5074A08C63DA2
:100300000030C73DC83D3308B9003908A30036089E
:100310008A317322803120002408CA002308C900D2
:100320004908C5074A08C63D0030C73DC83D3308E7
:10033000B9003908A30037088A31732280312000C0
:100340002408CA002308C9004908B9004A08BA00AD
:10035000BB01BC010830B935BA0DBB0DBC0D890B12
:10036000AB293908C5073A08C63D3B08C73D3C08DC
:10037000C83D3F08B9004008BA004108BB00420828
:10038000BC001830BC36BB0CBA0CB90C890BC229A6
:100390003908C5073A08C63D3B08C73D3C08C83D7B
:1003A0000830BF35C00DC10DC20D890BD1294408DD
:1003B0004307B900BA01BA0D3908823EC900FF30BF
:1003C0003A3DCA00FA290130C535C60DC70DC80D22
:1003D000890BE429C21FED29EE29EF2945140130CC
:1003E000BF35C00DC10DC20D890BF029FF30C90703
:1003F000FF30CA3DC71FFD29FE29E329C301C21FE3
:10040000022A032A1F2AFF303F05B900FF304005AA
:10041000BA00FF304105BB007F304205BC003C08FC
:100420003B043A0439040319162A172A1A2AC3016D
:10043000C30A1F2A451C1D2A1E2A1F2A172A4308E1
:100440000319232A242A4C2A0130C5070030C63D4F
:100450000030C73D0030C83D481C2F2A302A4C2AA6
:100460004508B9004608BA004708BB004808BC0068
:100470000130BD00BC37BB0CBA0CB90CBD0B3A2A1D
:100480003C08C8003B08C7003A08C6003908C50048
:100490000130C9070030CA3D4A08803AB9008030AF
:1004A0003902031D552AFF304902031C582A592AD4
:1004B000632A7F302000C8008030C7000030C600AB
:1004C0000030C500922A20004A08803AB9008030E6
:1004D0003902031D6D2A013049020318702A712A5E
:1004E0007C2A00302000C8000030C7000030C60061
:1004F0000030C500BE01922A20004908B900390821
:10050000C400FF30C505FF30C6057F30C705003089
:10051000C805441C8C2A8D2A8E2AC7174436B90078
:100520003908C8003E08B9003908C8044808B400B2
:100530004708B3004608B2004508B100080028305B
:100540002100DC005C082000AC006B308D31692597
:1005500082312100DD005D08CB002930DC005C0821
:100560002000AC006B308D31692582312100DD0027
:100570005D08CA002A30DC005C082000AC006B304B
:100580008D31692582312100DD005D08C9002B30E5
:10059000DC005C082000AC006B308D3169258231B5
:1005A0002100DD005D08C8002C30DC005C08200064
:1005B000AC006B308D31692582312100DD005D0892
:1005C000C7002D30DC005C082000AC006B308D31A2
:1005D000692582312100DD005D08C6004B08DC0082
:1005E000DD014A08DE00DF015E08DF00DE015C0895
:1005F0005E07E1005D085F3DE2004908DC00DD01C7
:100600004808DE00DF015E08DF00DE015C085E07EF
:10061000E3005D085F3DE4004708DC00DD014608BB
:10062000DE00DF015E08DF00DE015C085E07E5003A
:100630005D085F3DE60005302100DD000F30DC0085
:10064000F130890B212BDC0B212BDD0B212B4730CB
:100650002100D8009030D9006208DB006108DA0080
:1006600089319F21823150302100D8009030D9004B
:100670006408DB006308DA0089319F218231593038
:100680002100D8009030D9006608DB006508DA0048
:1006900089319F218231210061082000A3002100BF
:1006A00062082000A400890D893B8909A500A600E5
:1006B00001308E316626823120002608B8002508D8
:1006C000B7002408B6002308B5003A30B4003F3024
:1006D000B300E330B200B030B10080314820823145
:1006E00020003408CE003308CD003208CC00310899
:1006F000CB0087317E27823120004C082100E200A8
:1007000020004B082100E10063082000A300210025
:1007100064082000A400890D893B8909A500A60072
:1007200001308E316626823120002608B800250867
:10073000B7002408B6002308B5003A30B4003F30B3
:10074000B300E330B200B030B100803148208231D4
:1007500020003408CE003308CD003208CC00310828
:10076000CB0087317E27823120004C082100E40035
:1007700020004B082100E30065082000A3002100B1
:1007800066082000A400890D893B8909A500A60000
:1007900001308E316626823120002608B8002508F7
:1007A000B7002408B6002308B5003A30B4003F3043
:1007B000B300E330B200B030B10080314820823164
:1007C00020003408CE003308CD003208CC003108B8
:1007D000CB0087317E27823120004C082100E600C3
:1007E00020004B082100E5002030D8009030D900CF
:1007F0006208DB006108DA0089319F2182312D30E7
:100800002100D8009030D9006408DB006308DA00CA
:1008100089319F2182313A302100D8009030D900AF
:100820006608DB006508DA0089319F218231080003
:100830002000CB003E08D2003F08D3004008D4007F
:100840004108D5004208D6004308D7004408D80024
:100850004508D9005230860000308700473FC60067
:10086000C61B332C352C0130362C00302000C7003D
:10087000C8014708D0004808D100500851040319A6
:10088000422C432C612CD209D309D409D509D609AD
:10089000D709D809D909D20A031D612CD30A031D2F
:1008A000612CD40A031D612CD50A031D612CD60AC4
:1008B000031D612CD70A031D612CD80A031D612C6E
:1008C000D90A2100C21B652C662C6B2CFD30200040
:1008D000EA05FF30EB0521004208803A2000C600FF
:1008E00080304602031D772C01302100410203189D
:1008F0007A2C7B2C812C01302000CC000030CD00E4
:10090000892C210042082000CD0021004108200050
:10091000CC00210040082000CF0021003F0820002B
:10092000CE0050085104031D962C972C9B2C6A1D59
:100930009A2C9B2C9F2CFF30CE07FF30CF3D1F30D1
:10094000DA000030DB002200BF010F2DFF30200055
:10095000DA07FF30DB3D0A30A300A401A501A601A0
:10096000A701A801A901AA015208AB005308AC00D5
:100970005408AD005508AE005608AF005708B00047
:100980005808B1005908B2008F3113278431200074
:100990002408B7002308B6008A31162284312000CB
:1009A0003608303EC6005A08203E860001308700D7
:1009B00046088100FF30CC07FF30CD3DFF30CE0729
:1009C000FF30CF3D0A30A300A401A501A601A70175
:1009D000A801A901AA015208AB005308AC005408B1
:1009E000AD005508AE005608AF005708B0005808D3
:1009F000B1005908B20085318425843120002308D4
:100A0000D2002408D3002508D4002608D5002708E2
:100A1000D6002808D7002908D8002A08D9002000C5
:100A20005B08803AC60080304602031D192D013054
:100A30005A02031C1C2D1D2D4A2D20005208530460
:100A4000540455045604570458045904031D292D11
:100A50002A2DA62C4D08803AC60080304602031D80
:100A6000332D01304C020318362D372DA62C2000D3
:100A70004F08803AC60080304602031D412D0130E8
:100A80004E02031C442D452D4A2D2000EA18492D05
:100A90004A2DA62C200050085104031D502D512D25
:100AA000552D6A1D542D552D712DFF30DA07FF305D
:100AB000DB3D50085104031D5E2D5F2D642D2B304E
:100AC000C9000030CA00682D2D30C9000030CA00AE
:100AD0004908C6005A08203E8600013087004608B3
:100AE00081005A08203EC6004608B5004F08B700EE
:100AF0004E08B6004B088E3110268431200036088F
:100B0000BF003508BE0008002000B5012330860074
:100B100000308700473FB300B31F8F2D902DB22DBB
:100B20002000A309A409A509A609A709A809A909DC
:100B3000AA09A30A031DAF2DA40A031DAF2DA50A00
:100B4000031DAF2DA60A031DAF2DA70A031DAF2D50
:100B5000A80A031DAF2DA90A031DAF2DAA0A200064
:100B6000B501B50A2B30860000308700473F2000D2
:100B7000B300B31FBC2DBD2DE12D2000AB09AC0986
:100B8000AD09AE09AF09B009B109B209AB0A031D3D
:100B9000DC2DAC0A031DDC2DAD0A031DDC2DAE0AD5
:100BA000031DDC2DAF0A031DDC2DB00A031DDC2D57
:100BB000B10A031DDC2DB20A01302000B300330856
:100BC000B506363086000030870008302000B300BC
:100BD00000301E00B30BE92D23082404250426044D
:100BE0002704280429042A040319F72DF82D542E6C
:100BF000B401B40A072EA335A40DA50DA60DA70DAB
:100C0000A80DA90DAA0D0130B3003308B407AA1F1F
:100C10000A2E0B2EFB2DB635B70DB80DB90DBA0D3A
:100C2000BB0DBC0DBD0D2A083202031D312E290853
:100C30003102031D312E28083002031D312E2708F2
:100C40002F02031D312E26082E02031D312E2508EA
:100C50002D02031D312E24082C02031D312E2308E2
:100C60002B02031C342E352E462E2308AB022408FB
:100C7000AC3B2508AD3B2608AE3B2708AF3B280818
:100C8000B03B2908B13B2A08B23B3614AA36A90C5E
:100C9000A80CA70CA60CA50CA40CA30C0130B40244
:100CA000031D532E542E0B2E35080319582E592E82
:100CB000772EB609B709B809B909BA09BB09BC0941
:100CC000BD09B60A031D772EB70A031D772EB80A91
:100CD000031D772EB90A031D772EBA0A031D772E3E
:100CE000BB0A031D772EBC0A031D772EBD0A200008
:100CF0003608A3003708A4003808A5003908A60064
:100D00003A08A7003B08A8003C08A9003D08AA0033
:100D100008002100D40020005C0886008701403FC5
:100D2000DE00413FDF005E0884005F08850012009E
:100D3000253A031D9C2E9D2E582F5C0886008701A6
:100D40000130810741310318810A2100BF01C00130
:100D50002000EA01EB01FF302100C100FF30C2009A
:100D600020005C0886008701403FDE00413FDF0035
:100D70005E0884005F0885001200643A0319C12EE2
:100D8000C22ED32E5C0886008701403FDE00413F23
:100D9000DF005E0884005F0885001200693A031DC9
:100DA000D22ED32E212F5C088600870101308107C7
:100DB00041310318810A5D0886008701010884001B
:100DC000850102308107003FDE00013FDF005E0841
:100DD0002100CC0020005F082100CD00890D893B57
:100DE0008909CE00CF00D000D100D200D3004C083A
:100DF0002000BE0021004D082000BF0021004E0849
:100E00002000C00021004F082000C1002100500830
:100E10002000C200210051082000C3002100520818
:100E20002000C400210053082000C5002100540800
:100E300084311824863120003F08DD003E08DC00A4
:100E40007D2F5C0886008701403FDE00413FDF00C8
:100E50005E0884005F0885001200253A031D312FCB
:100E6000322F4D2F5C088600870101308107413108
:100E70000318810A2530A5000030A600210054087F
:100E80002000DE005E08A7008C31942486310130FA
:100E90002000DC000030DD007D2F5C08860087012B
:100EA0000130810741310318810ADC01DD017D2F0A
:100EB0005C0886008701403FDE00413FDF005E089E
:100EC00084005F0885000008E000E1016008A500DB
:100ED0006108A600210054082000E2006208A70073
:100EE0008C319424863120005C0886008701013013
:100EF000810741310318810A472F080003102000A1
:100F00004D0D4E0DCF004F08D5005508031D892FFC
:100F10008A2F932F0030CE000030CD000030CC005F
:100F20000030CB00F22F4B08CF004C08D0004D080A
:100F3000D1004E08D2001F30D236D10CD00CCF0CCD
:100F4000890B9C2F4F08D3005308D400CD17FF30D6
:100F5000CB05FF30CC05FF30CD050030CE059630F7
:100F6000D502D51FB42FB52FCD2F5508803A973E07
:100F70000318BB2FBC2FBD2F8A2F0130CE36CD0CCE
:100F8000CC0CCB0C890BBE2F0130CF004F08D507FE
:100F9000031DCB2FCC2FBD2FE22F20305502031C79
:100FA000D22FD32FDD2F8A2F0130CB35CC0DCD0D95
:100FB000CE0D890BD52F0130D5025508031DE12F29
:100FC000E22FD42F54080319E62FE72FF22FCB0975
:100FD000CC09CD09CE09CB0A0319CC0A0319CD0AD5
:100FE0000319CE0A08002400951AF72FF82FFF2FB7
:100FF00094010830950096014F3092009516080034
:10100000013008002000911108002400951208000A
:1010100021009111080024001614080021009115E8
:1010200008002400961616160800240096121616BC
:1010300008008B315F2388310800163021009700AB
:101040000800F00070082400910008002100BC1086
:10105000BB010E3008009731EE27883101300800BF
:101060009731EE278831023008009731EE2788311A
:10107000013008009731F1278831003008008831AD
:1010800015208831053008008831112088310A3058
:101090000800883111208831093008002100BC1077
:1010A000BB010E30080000308A313222883108003E
:1010B0002400160E890C890C013908006400800197
:1010C0000131890B5F28003421003C109731F4274F
:1010D0008831043008002000A40024088831C12091
:1010E0008831080021003C143635883121208831B0
:1010F000033008003200910192019301940195019F
:101100009601080021003C140314360D883121207B
:10111000883105300800200024082100C400200088
:1011200023082100C3000800200024082100EA0051
:10113000200023082100E9000800200024082100E5
:10114000EE00200023082100ED0008002000240804
:101150002100EC00200023082100EB0008002400FF
:1011600094010830950096014F30920095120800C6
:101170006030320099009B019D0107309F009E0165
:1011800008002000A300111EC628C728C328230872
:1011900023009A0008007608F1007508F00077082F
:1011A000F8007808F20000308A3197228831080070
:1011B00020002908A4002808A3002A08AB002B0857
:1011C000A50002308A31E322883108002000290876
:1011D000A4002808A3002A08AB002B08A5000030B3
:1011E0008A31E32288310800F3002100BC1DF92870
:1011F000FA2803297308F2007208B7007108B900D1
:101200007008B800BC1108000230F0000030F10096
:1012100079088831F42089310030F500F600F701B3
:101220008831CB208931043008000130F0000030D3
:10123000F10079088831F42089310030F500F6009A
:10124000F7018831CB208931043008000130F000EB
:101250000030F10079088831F42089310030F50040
:10126000F600F7018831CB208931023008000230C6
:10127000F0000030F10079088831F4208931003025
:10128000F500F600F7018831CB20893102300800E3
:101290000230F0000030F10079088831F420893103
:1012A0000030F500F600F7018831CB208931043099
:1012B00008000130F0000030F10079088831F42096
:1012C00089310030F500F600F7018831CB208931F3
:1012D000023008000230F0000030F1007908883157
:1012E000F42089310030F500F600F7018831CB2079
:1012F0008931023008000130F0000030F100790837
:101300008831F42089310030F500F600F70188318A
:10131000CB2089310430080088317A208931883126
:10132000AF2089318C315C2489318831B8208931F2
:1013300088311D2089318A31BD2289310800DA3097
:101340002000E8006808E90021005908D600580884
:10135000D50069302000E80068082100D70000307F
:101360008B31BC23893108002000A6002100BC1D60
:10137000BA29BB29CA2920002608A5002508210072
:10138000B700200024082100B90020002308210014
:10139000B800BC110800790886008701403FF000C2
:1013A000413FF1007908023E86008701010888313B
:1013B000F42089310030F500F600F7018831CB20A8
:1013C000893102300800790886008701403FF0002B
:1013D000413FF1007908023E86008701010888310B
:1013E000F42089310030F500F600F7018831CB2078
:1013F0008931023008002000A7002708A500250831
:10140000A600062A0130A5002508A70727088600A0
:10141000013087000108031D0E2A0F2A022A260820
:101420002702A300A401A31BA4030800200037087F
:10143000803AB80080303802031D202A013036027D
:101440000318232A242A312A20003609B800370934
:10145000B900B80A0319B90A3808B6003908B70044
:10146000312A08002000A400A501A50A2100BC180B
:101470003A2A3B2A4F2ABC142000A501240803194C
:10148000422A432A472A2100BA01BA0A4C2A0230CA
:10149000A30023082100BA0088310B208A312000E4
:1014A000250808002000A401A40A2100BC18592A1C
:1014B0005A2A702A3C11FF302000A3002308210083
:1014C000B600883102208A31883108208A3188317B
:1014D00005208A3121003B082000A3002308A40036
:1014E0002000240808002000AB00A701A801230861
:1014F000A500A6012508A9002608AA002B1C812A00
:10150000822A862A2908A7072A08A83D0130A9357A
:10151000AA0D890B872A0310AB0C2B08031D912AF7
:10152000922A7E2A2808A4002708A3000800F400B5
:101530007008710403199D2A9E2AAF2A7435A03EB3
:10154000860087017008C03F7108C13F7208F30030
:101550007408AC3E8600870173088100BC2A74358C
:10156000A03E860087010030C03F0830C13F7408AC
:10157000AC3E8600870181010800083023009F00EF
:1015800090309D0024309E0040309B0003309C0032
:1015900000302000A3000030A40088319D208A3153
:1015A00000302000A3000030A4008831A6208A313A
:1015B00000302000A3000030A400883194208A313C
:1015C0002100C50108002000A700230824040319F6
:1015D000EA2AEB2AFC2A2735A03E86008701230849
:1015E000C03F2408C13F2508A6002708AC3E86005E
:1015F000870126088100092B2735A03E8600870138
:101600000030C03F0830C13F2708AC3E860087014C
:10161000810108002000B400B201B301222B31087F
:10162000AE00AF012E08A5002F08A6002D08B000BF
:101630003008A7008C3194248B3101302000B20790
:101640000030B33D32083407AE002E08860001306A
:1016500087000108AF002F08B1003108031D312BAE
:10166000322B0F2B080021003C100230FA007A08C0
:10167000BB00422B883135208B315E2B88313A20DC
:101680008B315E2B2E08FA007A08F9000430A03E58
:1016900086008701413F8A00403F0A008B31FB00F2
:1016A000FC017C08003A0319562B3E2B7B08023ABA
:1016B00003193A2B013A03193A2B3E2B08009731B4
:1016C000FD278B3121003C1C662B672B752B883145
:1016D00058208B31003A03196E2B6F2B752B0F306E
:1016E0002000A00020082100BA0021003A082000B4
:1016F000A000A101A035A10D00302007840090308A
:10170000213D8500013F8A00003F0A008B31200007
:10171000A20022082100BA0008002100BC159D2B60
:10172000883135208B31BB2B9731FA278B31033031
:10173000BB2B88313A208B31BB2B2C08FA007A085E
:10174000F90021088A0020080A008B31FB00FC0107
:101750007C08003A0319AD2B992B7B08013A031939
:10176000992B033A0319902B013A0319902B073A4E
:101770000319942B992B08002000E500210056083E
:101780002000E700210055082000E6002100BD01EF
:10179000BE01E02B6630E3006308DC00210057083F
:1017A0002000E4006408DD006508863189268B315D
:1017B00020005C082100BD0720005D082100BE3D1F
:1017C000200066088400670885001200031DE92BCD
:1017D000EA2BCA2B21003E08D6003D08D5000800A0
:1017E0002000AF0020002F088D311D258B31003ADD
:1017F0000319FB2BFC2BF22B15302000A80009301D
:10180000A9002D30AE002E08AA008831E6208B31C9
:1018100001302000A3000030A4002C308931B42115
:101820008B3100302000A800A900AA018831D820FF
:101830008B31883153208B318A3152228B31013ADE
:101840000319232C242C1C2C080089318C218C3169
:101850008B170B1720302100E70067082000AC0031
:10186000C8302100E80068082000AD006B308B31E3
:10187000F0238C312E302100E70067082000AC00F7
:10188000C0302100E80068082000AD006B308B31CB
:10189000F0238C3182319F228C3129302100E800E5
:1018A0009630E7007F30890B532CE70B532CE80B65
:1018B000532C4A2C8031282822008C018D018E0166
:1018C000373021008C0070308D00FF308E00E93001
:1018D00023008E0050308D0037308C0024008D01A5
:1018E0008C018E0125008C018D018E013730260080
:1018F0008C00F0308D00FF308E003F3027008C00D0
:10190000F0308D00FF308E000D303C00A40012300E
:10191000A00014303D009F001930A1001830A20033
:1019200011303C00A1000800200027080319992C61
:101930009A2C9F2C2708031D9E2C9F2CA42C250835
:1019400088316B208C31D62C2708083E8600870111
:10195000160001040319AD2CAE2CCC2C2708083E30
:1019600086008701403FA800413FA9002708023EAA
:1019700086008701403FAA00413FAB002B08803A18
:10198000AC002908803A2C02031DC82C28082A0222
:101990000318CB2CCC2CD62C20002708023E860026
:1019A00087010130810741310318810A080097310E
:1019B000F7278C31FA0021003708860087017A0862
:1019C00081000130FA007A08B7070130B802003010
:1019D000B93B380839040319EE2CEF2CF42C88316C
:1019E00015208C3105301C2DBC15FE2C883149206A
:1019F0008C311C2D883144208C311C2D2C08FA0090
:101A00007A08F90021088A0020080A008D31FB00BD
:101A1000FC017C08003A03190E2DFA2C7B08013AD0
:101A20000319FA2C033A0319F62C013A0319F62C80
:101A3000073A0319FA2CFA2C08002000A600A70187
:101A4000A70A21003C19252D262D662D20002608E9
:101A5000A50025082100B600BC103C153C100E3036
:101A60002000A50025082100BA00F430B4000130A0
:101A7000B500BC150030A0000830A100AC0100305A
:101A8000A2000830A300AD010030A4000830A5007A
:101A9000AE010030A6000830A700AF010230A80058
:101AA0000030A900B00119302000A3000830A400C4
:101AB00088318B208D31883102208D318731F32799
:101AC0008D3188310E208D312000A701200027089C
:101AD00008002000AE002A30AD002D08B200023010
:101AE000B0000030B10020002E088D311D258D3151
:101AF000003A03197C2D7D2D732D26302000A8007F
:101B00000930A9003230AD002D08AA008831E62046
:101B10008D3101302000A3000030A4002C30893129
:101B2000B4218D3100302000A800A900AA0188311D
:101B3000D8208D31883153208D318A3152228D3118
:101B40002000AD002D08AF002F030319A82DA92DEB
:101B50009D2D2F08031DAD2DAE2DAF2DB92DFF30BE
:101B6000B007FF30B13D30083104031DB82DB92D49
:101B7000732D32080800883158208D31003A03193E
:101B8000C22DC32DF32DD02D88312B208D310F2E5A
:101B9000883130208D310F2E88313A208D310F2E33
:101BA00021002F08FA007A08F9000630A03E8600CE
:101BB0008701413F8A00403F0A008D31FB00FC0154
:101BC0007C08003A0319E52DCC2D7B08013A031956
:101BD000CC2D033A0319C42D013A0319C82D073A35
:101BE0000319CC2DCC2D21003C101730A03E8600CF
:101BF0008701403F84008501810A00088831212047
:101C00008D3101302100B8020030B93B3808390469
:101C1000031D0B2E0C2E0E2E06300F2E0330080047
:101C20002000BD006A1C152E162E1E2E3D08B80081
:101C30003808AD0035088B310A238E312000B71BE0
:101C4000222E232E282E3708BC003608BB002A2E51
:101C5000BB01BC01B901BA013E2E20302000A50015
:101C60000030A6003D08B8003808A7008C31942445
:101C70008E3101302000B9070030BA3D3A08803A71
:101C8000B8003C08803A3802031D482E3B08390250
:101C9000031C4B2E4C2E2D2E20006A18502E512E38
:101CA000592E3D08B8003808AD0035088B310A239D
:101CB0008E31200035088931FB218E3120003B0810
:101CC0002307B5003C08243DB60008002000AB0007
:101CD0002B0803196C2E6D2E812EA61F702E712ECF
:101CE000812E2309AD002409AE002509AF00260985
:101CF000B000AD0A0319AE0A0319AF0A0319B00AFE
:101D0000892E2608B0002508AF002408AE0023085D
:101D1000AD002608250424042304031D902E912ED3
:101D20009A2E0030A6000030A5000030A40000303C
:101D3000A300122F9630A7002708AC00AA2E01306E
:101D4000A7002708AC070130B036AF0CAE0CAD0CC5
:101D5000890BA42EFE303005031DAF2EB02E9F2E12
:101D6000C42E0130A7002708AC070130AD070030B2
:101D7000AE3D0030AF3D0030B03D0130B036AF0C6D
:101D8000AE0CAD0C890BBE2EFF303005031DC92EE5
:101D9000CA2EB12ED42E0130AC020130AD35AE0DBD
:101DA000AF0DB00D890BCE2EAF1BD72ED82EDE2E49
:101DB00002302C020318DD2EDE2ECB2E2C18E12E45
:101DC000E22EEA2EFF30AD05FF30AE057F30AF05C5
:101DD000FF30B0050310AC0C2C08A700A801A90126
:101DE000AA011830A735A80DA90DAA0D890BF22E4E
:101DF0002708AD042808AE042908AF042A08B00457
:101E00002B080319042F052F0A2FA61F082F092FAF
:101E10000A2FB0173008A6002F08A5002E08A4002E
:101E20002D08A30008002000B5012B3086000030EB
:101E30008700473FB300B31F1E2F1F2F412F2000E5
:101E4000AB09AC09AD09AE09AF09B009B109B209D6
:101E5000AB0A031D3E2FAC0A031D3E2FAD0A031D26
:101E60003E2FAE0A031D3E2FAF0A031D3E2FB00AC0
:101E7000031D3E2FB10A031D3E2FB20A2000B501FB
:101E8000B50A2330860000308700473F2000B300AA
:101E9000B31F4B2F4C2F6B2F2000A309A409A509BA
:101EA000A609A709A809A909AA09A30A031D6B2F56
:101EB000A40A031D6B2FA50A031D6B2FA60A031D81
:101EC0006B2FA70A031D6B2FA80A031D6B2FA90AEE
:101ED000031D6B2FAA0A20002308240425042604CE
:101EE0002704280429042A040319772F782FCB2FDD
:101EF000B401B40A872FA335A40DA50DA60DA70D17
:101F0000A80DA90DAA0D0130B3003308B407AA1F0C
:101F10008A2F8B2F7B2F2A083202031DA92F290815
:101F20003102031DA92F28083002031DA92F2708FD
:101F30002F02031DA92F26082E02031DA92F2508F5
:101F40002D02031DA92F24082C02031DA92F2308ED
:101F50002B02031CAC2FAD2FBD2F2308AB0224088E
:101F6000AC3B2508AD3B2608AE3B2708AF3B280815
:101F7000B03B2908B13B2A08B23BAA36A90CA80CF1
:101F8000A70CA60CA50CA40CA30C0130B402031DD5
:101F9000CA2FCB2F8B2F35080319CF2FD02FEE2F21
:101FA000AB09AC09AD09AE09AF09B009B109B20975
:101FB000AB0A031DEE2FAC0A031DEE2FAD0A031D65
:101FC000EE2FAE0A031DEE2FAF0A031DEE2FB00A4F
:101FD000031DEE2FB10A031DEE2FB20A20002B08BD
:101FE000A3002C08A4002D08A5002E08A6002F0889
:101FF000A7003008A8003108A9003208AA0008008C
:10200000263408348234083472340834BB340D3436
:10201000D7340C34643408348D340B342B34083406
:1020200030340834353408343A3408343F34083412
:1020300044340834493408344E34083433340B34CF
:10204000203458345F346E34653477343A34203475
:10205000253464340A340D340034203459345F3468
:102060006E34653477343A342034253464340A3499
:102070000D34003420345A345F346E346534773490
:102080003A342034253464340A340D340034203496
:1020900058343A342034253464340A340D3400344E
:1020A000203459343A342034253464340A340D341D
:1020B000003420345A343A342034253464340A3419
:0420C0000D340034A7
:102FD8000F340F3424009614080024001615080036
:102FE80024009615080024001108080020009115F7
:082FF8000800200091110800FF
:020000040001F9
:08000000FF3FFF3FFF3FFF3F00
:08000E00EC3FF33FFF3FFF3F11
:00000001FF
