:1000000080312828053008007E1480310B1F092814
:100010000A2826282100111D0E280F281B28200041
:10002000111D132814281B28210048088A0047089E
:100030000A00803126282100911D1F28202826280B
:100040002000911D24282528262814287E10090028
:1000500080312A288B31D6238031FD008B31D52386
:100060008031EC00EA01EB01A03084000030850013
:1000700030308C31472480312030840001308500BD
:1000800020308C31472480317E1020008F31C92FE1
:100090002000CB003E08D2003F08D3004008D40027
:1000A0004108D5004208D6004308D7004408D800CC
:1000B0004508D9005230860000308700473FC6000F
:1000C000C61B632865280130662800302000C70061
:1000D000C8014708D0004808D1005008510403194E
:1000E000722873289128D209D309D409D509D609D1
:1000F000D709D809D909D20A031D9128D30A031DAB
:100100009128D40A031D9128D50A031D9128D60AE7
:10011000031D9128D70A031D9128D80A031D912891
:10012000D90A2100C21B952896289B28FD30200063
:10013000EA05FF30EB0521004208803A2000C600A6
:1001400080304602031DA728013021004102031818
:10015000AA28AB28B12801302000CC000030CD0007
:10016000B928210042082000CD00210041082000CC
:10017000CC00210040082000CF0021003F082000D3
:10018000CE0050085104031DC628C728CB286A1D7D
:10019000CA28CB28CF28FF30CE07FF30CF3D1F30F5
:1001A000DA000030DB002200BF013F29FF302000D1
:1001B000DA07FF30DB3D0A30A300A401A501A60148
:1001C000A701A801A901AA015208AB005308AC007D
:1001D0005408AD005508AE005608AF005708B000EF
:1001E0005808B1005908B2008431DB248031200066
:1001F0002408B7002308B6008E310C268031200079
:100200003608303EC6005A08203E8600013087007E
:1002100046088100FF30CC07FF30CD3DFF30CE07D0
:10022000FF30CF3D0A30A300A401A501A601A7011C
:10023000A801A901AA015208AB005308AC00540858
:10024000AD005508AE005608AF005708B00058087A
:10025000B1005908B2008231E12280312000230828
:10026000D2002408D3002508D4002608D50027088A
:10027000D6002808D7002908D8002A08D90020006D
:100280005B08803AC60080304602031D49290130D0
:100290005A02031C4C294D297A2920005208530484
:1002A000540455045604570458045904031D59298D
:1002B0005A29D6284D08803AC60080304602031DD0
:1002C000632901304C02031866296729D6282000CB
:1002D0004F08803AC60080304602031D7129013064
:1002E0004E02031C742975297A292000EA187929FD
:1002F0007A29D628200050085104031D802981291D
:1003000085296A1D84298529A129FF30DA07FF3054
:10031000DB3D50085104031D8E298F2994292B3071
:10032000C9000030CA0098292D30C9000030CA0029
:100330004908C6005A08203E86000130870046085A
:1003400081005A08203EC6004608B5004F08B70095
:100350004E08B6004B088531C8258031200036088C
:10036000BF003508BE00080028302100E00060080A
:100370002000AC006B308631732681312100E10012
:100380006108CF002930E00060082000AC006B302D
:100390008631732681312100E1006108CE002A30C8
:1003A000E00060082000AC006B308631732681319C
:1003B0002100E1006108CD002B30E0006008200042
:1003C000AC006B308631732681312100E100610879
:1003D000CC002C30E00060082000AC006B3086318F
:1003E000732681312100E1006108CB002D30E0004F
:1003F00060082000AC006B3086317326813121000B
:10040000E1006108CA004F08E000E1014E08E20087
:10041000E3016208E300E20160086207E6006108A8
:10042000633DE7004D08E000E1014C08E200E30114
:100430006208E300E20160086207E8006108633DCA
:10044000E9004B08E000E1014A08E200E30162082C
:10045000E300E20160086207EA006108633DEB0027
:100460002030DC009030DD006708DF006608DE0029
:100470008D31952581312E302100DC009030DD005A
:100480006908DF006808DE008D31952581313C3038
:100490002100DC009030DD006B08DF006A08DE0020
:1004A0008D3195258131210067082000B70021009A
:1004B00066082000B6008E310C26813120003608F7
:1004C0002100E000200037082100E1006908200039
:1004D000B700210068082000B6008E310C2681315B
:1004E0002000360821006007E200200037082100C4
:1004F000613DE3006B082000B70021006A0820007E
:10050000B6008E310C2681312000360821006207AA
:10051000E400200037082100633DE5006408EC3E5C
:10052000EC00FA30653DED004A30DC009030DD0033
:100530006D08DF006C08DE008D31952581312100CA
:100540004408803AE0006D08803A6002031DAA2A40
:100550006C0843020318AD2AAE2AB62A21006D08A2
:10056000C4006C08C300C501C601C92A5830210067
:100570004506023003194606031DBF2AC02AC52AB4
:10058000C301C401C501C601C92A0130C507003035
:10059000C63D5730DC009030DD004408DF004308E2
:1005A000DE008D319525813162302100DC009030F4
:1005B000DD004608DF004508DE008D3195258131DC
:1005C00008002000B5012330860000308700473F37
:1005D000B300B31FEC2AED2A0F2B2000A309A409B6
:1005E000A509A609A709A809A909AA09A30A031D1B
:1005F0000C2BA40A031D0C2BA50A031D0C2BA60A09
:10060000031D0C2BA70A031D0C2BA80A031D0C2B82
:10061000A90A031D0C2BAA0A2000B501B50A2B302C
:10062000860000308700473F2000B300B31F192B1E
:100630001A2B3E2B2000AB09AC09AD09AE09AF095E
:10064000B009B109B209AB0A031D392BAC0A031D6D
:10065000392BAD0A031D392BAE0A031D392BAF0A06
:10066000031D392BB00A031D392BB10A031D392B89
:10067000B20A01302000B3003308B50636308600D8
:100680000030870008302000B30000301E00B30B9C
:10069000462B2308240425042604270428042904BF
:1006A0002A040319542B552BB12BB401B40A642B23
:1006B000A335A40DA50DA60DA70DA80DA90DAA0D76
:1006C0000130B3003308B407AA1F672B682B582BDF
:1006D000B635B70DB80DB90DBA0DBB0DBC0DBD0DBE
:1006E0002A083202031D8E2B29083102031D8E2B8E
:1006F00028083002031D8E2B27082F02031D8E2B86
:1007000026082E02031D8E2B25082D02031D8E2B7D
:1007100024082C02031D8E2B23082B02031C912B73
:10072000922BA32B2308AB022408AC3B2508AD3B3E
:100730002608AE3B2708AF3B2808B03B2908B13B51
:100740002A08B23B3614AA36A90CA80CA70CA60C92
:10075000A50CA40CA30C0130B402031DB02BB12BCB
:10076000682B35080319B52BB62BD42BB609B7095E
:10077000B809B909BA09BB09BC09BD09B60A031D04
:10078000D42BB70A031DD42BB80A031DD42BB90AE6
:10079000031DD42BBA0A031DD42BBB0A031DD42B73
:1007A000BC0A031DD42BBD0A20003608A30037085D
:1007B000A4003808A5003908A6003A08A7003B089D
:1007C000A8003C08A9003D08AA0008002100D800A4
:1007D00020005C0886008701403FDE00413FDF00CB
:1007E0005E0884005F0885001200253A031DF92B7E
:1007F000FA2BB52C5C088600870101308107413156
:100800000318810A2100BF01C0012000EA01EB01A9
:10081000FF302100C100FF30C20020005C088600CC
:100820008701403FDE00413FDF005E0884005F0833
:1008300085001200643A03191E2C1F2C302C5C0812
:1008400086008701403FDE00413FDF005E088400F4
:100850005F0885001200693A031D2F2C302C7E2C76
:100860005C08860087010130810741310318810A45
:100870005D08860087010108840085010230810738
:10088000003FDE00013FDF005E082100D0002000B5
:100890005F082100D100890D893B8909D200D3006E
:1008A000D400D500D600D70050082000BE0021009B
:1008B00051082000BF00210052082000C000210084
:1008C00053082000C100210054082000C20021006C
:1008D00055082000C300210056082000C400210054
:1008E00057082000C5002100580880314820833176
:1008F00020003F08DD003E08DC00DA2C5C088600A2
:100900008701403FDE00413FDF005E0884005F0852
:1009100085001200253A031D8E2C8F2CAA2C5C0812
:10092000860087010130810741310318810A253093
:10093000A5000030A600210058082000DE005E0857
:10094000A70087315727833101302000DC000030B9
:10095000DD00DA2C5C088600870101308107413117
:100960000318810ADC01DD01DA2C5C0886008701AE
:10097000403FDE00413FDF005E0884005F088500E5
:100980000008E000E1016008A5006108A600210060
:1009900058082000E2006208A700873157278331FA
:1009A00020005C088600870101308107413103186F
:1009B000810AA42C08002000B5012B3086000030ED
:1009C0008700473FB300B31FE62CE72C092D20001A
:1009D000AB09AC09AD09AE09AF09B009B109B2095B
:1009E000AB0A031D062DAC0A031D062DAD0A031D1F
:1009F000062DAE0A031D062DAF0A031D062DB00AF3
:100A0000031D062DB10A031D062DB20A2000B501F3
:100A1000B50A2330860000308700473F2000B3002E
:100A2000B31F132D142D332D2000A309A409A509EC
:100A3000A609A709A809A909AA09A30A031D332D14
:100A4000A40A031D332DA50A031D332DA60A031D79
:100A5000332DA70A031D332DA80A031D332DA90A20
:100A6000031D332DAA0A200023082404250426048C
:100A70002704280429042A0403193F2D402D932D0F
:100A8000B401B40A4F2DA335A40DA50DA60DA70DD5
:100A9000A80DA90DAA0D0130B3003308B407AA1F91
:100AA000522D532D432D2A083202031D712D290882
:100AB0003102031D712D28083002031D712D2708F6
:100AC0002F02031D712D26082E02031D712D2508EE
:100AD0002D02031D712D24082C02031D712D2308E6
:100AE0002B02031C742D752D852D2308AB022408C1
:100AF000AC3B2508AD3B2608AE3B2708AF3B28089A
:100B0000B03B2908B13B2A08B23BAA36A90CA80C75
:100B1000A70CA60CA50CA40CA30C0130B402031D59
:100B2000922D932D532D35080319972D982DB62D01
:100B3000AB09AC09AD09AE09AF09B009B109B209F9
:100B4000AB0A031DB62DAC0A031DB62DAD0A031D5D
:100B5000B62DAE0A031DB62DAF0A031DB62DB00A81
:100B6000031DB62DB10A031DB62DB20A20002B08B5
:100B7000A3002C08A4002D08A5002E08A6002F080D
:100B8000A7003008A8003108A9003208AA00080010
:100B90002000BD006A1CCD2DCE2DD62D3D08B800FD
:100BA0003808AD0035088E31DC2685312000B71BB2
:100BB000DA2DDB2DE02D3708BC003608BB00E22D16
:100BC000BB01BC01B901BA01F62D20302000A500FF
:100BD0000030A6003D08B8003808A7008731572725
:100BE000853101302000B9070030BA3D3A08803A1B
:100BF000B8003C08803A3802031D002E3B08390239
:100C0000031C032E042EE52D20006A18082E092E41
:100C1000112E3D08B8003808AD0035088E31DC26AD
:100C20008531200035088D31F125853120003B08C4
:100C30002307B5003C08243DB60008008C31412450
:100C40008631003A0319252E262E562E332E8C314E
:100C500014248631722E8C3119248631722E8C31F7
:100C600023248631722E21002F08FA007A08F90019
:100C70000630A03E86008701413F8A00403F0A00BF
:100C80008631FB00FC017C08003A0319482E2F2E08
:100C90007B08013A03192F2E033A0319272E013A34
:100CA00003192B2E073A03192F2E2F2E21003C104B
:100CB0001730A03E86008701403F84008501810AED
:100CC00000088C310A24863101302100B80200303E
:100CD000B93B38083904031D6E2E6F2E712E063075
:100CE000722E033008002000AE002A30AD002D081F
:100CF000B2000230B0000030B10020002E08863172
:100D0000C5268631003A0319862E872E7D2E1C308B
:100D10002000A8000D30A9003230AD002D08AA0037
:100D20008C31DC24863101302000A3000030A40087
:100D30002C308D31AA25863100302000A800A90072
:100D4000AA018C31CE2486318C313C2486318E31FF
:100D5000482686312000AD002D08AF002F0303196F
:100D6000B22EB32EA72E2F08031DB72EB82EB92EE4
:100D7000C32EFF30B007FF30B13D30083104031DF2
:100D8000C22EC32E7D2E320808002000A600A70127
:100D9000A70A21003C19CD2ECE2E0E2F20002608AA
:100DA000A50025082100B600BC103C153C100E30F3
:100DB0002000A50025082100BA00F430B40001305D
:100DC000B500BC15D730A0000B30A100AC01D73066
:100DD000A2000B30A300AD01D730A4000B30A5005A
:100DE000AE01D730A6000B30A700AF010230A8003B
:100DF0000030A900B00102302000A3000C30A40094
:100E00008C31742486318B31EB2386318C31C124B3
:100E100086318B31F72386312000A7012000270877
:100E200008008B31E2238731FA0021003708860061
:100E300087017A0881000130FA007A08B70701308B
:100E4000B8020030B93B380839040319282F292F7C
:100E50002E2F8B31FE2387310530562FBC15382FAE
:100E60008C3132248731562F8C312D248731562FE7
:100E70002C08FA007A08F90021088A0020080A00E4
:100E80008731FB00FC017C08003A0319482F342FFE
:100E90007B08013A0319342F033A0319302F013A22
:100EA0000319302F073A0319342F342F080020007C
:100EB000270803195C2F5D2F622F2708031D612F60
:100EC000622F672F25088C3154248731992F2708EA
:100ED000083E86008701160001040319702F712F48
:100EE0008F2F2708083E86008701403FA800413F1A
:100EF000A9002708023E86008701403FAA00413F23
:100F0000AB002B08803AAC002908803A2C02031D64
:100F10008B2F28082A0203188E2F8F2F992F20003D
:100F20002708023E860087010130810741310318FE
:100F3000810A080022008C018D018E0137302100CA
:100F40008C0070308D00FF308E00A73023008E00A3
:100F500050308D0037308C0024008D018C018E01C3
:100F600025008C018D018E01373026008C00F03079
:100F70008D00FF308E003F3027008C00F0308D0058
:100F8000FF308E000D303C00A4001630A000193058
:100F90003D00A30014309F001830A60013303C0021
:100FA000A10008008B31E823873121003C1CD92F98
:100FB000DA2FE82F8C3141248731003A0319E12FD1
:100FC000E22FE82F0F302000A00020082100BA00F7
:100FD00021003A082000A000A101A035A10D003099
:100FE000200784009030213D8500013F8A00003FAA
:100FF0000A0087312000A20022082100BA00080060
:1017AA000F340F3401300800240096140800240076
:1017BA0016150800240096150800240011080800D0
:1017CA0020009115080020009111080020009111B5
:1017DA000800240095120800210091110800240035
:1017EA0016140800210091150800240096161616F2
:1017FA00080024009612161608008731D2278C3169
:10180A0008001630210097000800F0007008240034
:10181A00910008002100BC10BB010E3008008B317A
:10182A00D9238C31013008008B31D9238C31023015
:10183A0008008B31D9238C31013008008B31DC232D
:10184A008C31003008008B31FE238C3105300800C2
:10185A008B31FA238C310A3008008B31FA238C3110
:10186A00093008002100BC10BB010E30080000300E
:10187A008E3128268C3108002400160E890C890C1A
:10188A0001390800640080010131890B482C0034B9
:10189A0021003C108B31DF238C31043008002000FA
:1018AA00A40024088C31AA248C31080021003C149D
:1018BA0036358C310A248C3103300800320091010C
:1018CA0092019301940195019601080021003C14AC
:1018DA000314360D8C310A248C310530080020009F
:1018EA0024082100C800200023082100C70008009E
:1018FA00200024082200C100200023082200C00082
:10190A000800200024082100EF00200023082100FD
:10191A00EE000800200024082200C300200023084B
:10192A002200C200080024009401083095009601A4
:10193A004F309200951208006030320099009B01E6
:10194A009D0107309F009E0108002000A300111E80
:10195A00AF2CB02CAC2C230823009A000800760880
:10196A00F1007508F0007708F8007808F2000030F6
:10197A008E3169268C3108002400951AC52CC62C94
:10198A00CD2C94010830950096014F30920095169F
:10199A00080020002908A4002808A3002A08AB0090
:1019AA002B08A50002308E31B5268C3108002000A4
:1019BA002908A4002808A3002A08AB002B08A500C0
:1019CA0000308E31B5268C310800F3002100BC1D91
:1019DA00EF2CF02CF92C7308F2007208B70071088A
:1019EA00B9007008B800BC1108000230F0000030DD
:1019FA00F10079088C31EA248C310030F500F600C8
:101A0A00F7018C31B4248C31043008000130F00025
:101A1A000030F10079088C31EA248D310030F5006C
:101A2A00F600F7018C31B4248D31043008000130FE
:101A3A00F0000030F10079088C31EA248D31003051
:101A4A00F500F600F7018C31B4248D31023008001C
:101A5A000230F0000030F10079088C31EA248D312F
:101A6A000030F500F600F7018C31B4248D310230D4
:101A7A0008000230F0000030F10079088C31EA24C5
:101A8A008D310030F500F600F7018C31B4248D3128
:101A9A00043008000130F0000030F10079088C3180
:101AAA00EA248D310030F500F600F7018C31B424B8
:101ABA008D31023008000230F0000030F100790860
:101ACA008C31EA248D310030F500F600F7018C31B3
:101ADA00B4248D31023008000130F0000030F100EA
:101AEA0079088C31EA248D310030F500F600F701CF
:101AFA008C31B4248D31043008008C3163248D314B
:101B0A008C3198248D3187319A278D318C31A124DB
:101B1A008D318C3106248D318E318F268D3108001E
:101B2A00DE302000E8006808E90021005D08DA00DC
:101B3A005C08D90069302000E80068082100DB0051
:101B4A0000308F3160278D3108002000A600210067
:101B5A00BC1DB02DB12DC02D20002608A5002508DA
:101B6A002100B700200024082100B9002000230822
:101B7A002100B800BC110800790886008701403F9F
:101B8A00F000413FF1007908023E86008701010812
:101B9A008C31EA248D310030F500F600F7018C31E2
:101BAA00B4248D3102300800790886008701403F4D
:101BBA00F000413FF1007908023E860087010108E2
:101BCA008C31EA248D310030F500F600F7018C31B2
:101BDA00B4248D31023008002000A7002708A50090
:101BEA002508A600FC2D0130A5002508A70727080F
:101BFA008600013087000108031D042E052EF82DEA
:101C0A0026082702A300A401A31BA403080020009E
:101C1A003708803AB80080303802031D162E01308A
:101C2A0036020318192E1A2E272E20003609B8005C
:101C3A003709B900B80A0319B90A3808B6003908C9
:101C4A00B700272E08002000A400A501A50A21003C
:101C5A00BC18302E312E452EBC142000A5012408B4
:101C6A000319382E392E3D2E2100BA01BA0A422E06
:101C7A000230A30023082100BA008B31F4238E31ED
:101C8A002000250808002000A401A40A2100BC188D
:101C9A004F2E502E662E3C11FF302000A300230841
:101CAA002100B6008B31EB238E318B31F1238E313B
:101CBA008B31EE238E3121003B082000A30023083C
:101CCA00A400200024080800F40070087104031915
:101CDA006F2E702E812E7435A03E86008701700803
:101CEA00C03F7108C13F7208F3007408AC3E860019
:101CFA008701730881008E2E7435A03E8600870105
:101D0A00D730C03F0B30C13F7408AC3E8600870114
:101D1A0081010800083023009F0090309D00243084
:101D2A009E0040309B0003309C0000302000A3003E
:101D3A000030A4008C3186248E3100302000A300AC
:101D4A000030A4008C318F248E3100302000A30093
:101D5A000030A4008C317D248E312100C901080095
:101D6A002000A700230824040319BC2EBD2ECE2E62
:101D7A002735A03E860087012308C03F2408C13FBB
:101D8A002508A6002708AC3E8600870126088100A0
:101D9A00DB2E2735A03E86008701D730C03F0B30A7
:101DAA00C13F2708AC3E8600870181010800200058
:101DBA00B400B201B301F42E3108AE00AF012E080F
:101DCA00A5002F08A6002D08B0003008A70087310B
:101DDA0057278E3101302000B2070030B33D320858
:101DEA003407AE002E088600013087000108AF00D4
:101DFA002F08B1003108031D032F042FE12E08001C
:101E0A0021003C100230FA007A08BB00142F8C31F2
:101E1A001E248F31302F8C3123248F31302F2E08FE
:101E2A00FA007A08F9000430A03E86008701413F93
:101E3A008A00403F0A008F31FB00FC017C08003A0F
:101E4A000319282F102F7B08023A03190C2F013A85
:101E5A0003190C2F102F08002100BC15412F8C31BB
:101E6A001E248F315F2F8B31E5238F3103305F2F93
:101E7A008C3123248F315F2F2C08FA007A08F9005D
:101E8A0021088A0020080A008F31FB00FC017C0827
:101E9A00003A0319512F3D2F7B08013A03193D2FB0
:101EAA00033A0319342F013A0319342F073A031955
:101EBA00382F3D2F08002000E50021005A08200095
:101ECA00E700210059082000E6002100BD01BE01FB
:101EDA00842F6630E3006308DC0021005B082000E1
:101EEA00E4006408DD0065088331E6238F312000B1
:101EFA005C082100BD0720005D082100BE3D2000CE
:101F0A0066088400670885001200031D8D2F8E2F36
:101F1A006E2F21003E08DA003D08D9000800200093
:101F2A00AF0020002F088631C5268F31003A0319E9
:101F3A009F2FA02F962F0B302000A8000D30A9004C
:101F4A002D30AE002E08AA008C31DC248F310130EE
:101F5A002000A3000030A4002C308D31AA258F3137
:101F6A0000302000A800A900AA018C31CE248F31AC
:101F7A008C313C248F318E3148268F31013A031936
:101F8A00C72FC82FC02F08008D3182258F318B179C
:101F9A000B1720302200C40044082000AC00C830CF
:101FAA002200C50045082000AD006B308F31942710
:101FBA008F312E302200C40044082000AC00C0300B
:101FCA002200C50045082000AD006B308F319427F0
:101FDA008F318131B4218F3105302200C5000F3095
:101FEA00C400F130890BF72FC40BF72FC50BF72F5D
:101FFA00EE2F803128280F340C346B340C345B34C8
:10200A000C341E340634113407344D340C34313454
:10201A000F3414340C3419340C341E340C34233475
:10202A000C3428340C342D340C3432340C34373418
:10203A000C3405340F34203464346134743461341C
:10204A005F3478343A342034253464340A340D3415
:10205A000034203464346134743461345F34793444
:10206A003A342034253464340A340D3400342034AC
:10207A0064346134743461345F347A343A342034E9
:10208A00253464340A340D340034203474346F3403
:10209A00743461346C343A342034253464340A3468
:1020AA000D34003420346D34613478343A342034B9
:1020BA00253464340A340D340034203469343A3413
:0C20CA002034253464340A340D34003412
:020000040001F9
:08000000FF3FFF3FFF3FFF3F00
:08000E00EC3FF33FFF3FFF3F11
:00000001FF
