:1000000080312828053008007E1480310B1F092814
:100010000A2826282100111D0E280F281B28200041
:10002000111D132814281B28210044088A004308A6
:100030000A00803126282100911D1F28202826280B
:100040002000911D24282528262814287E10090028
:1000500080312A288C3156248031FD008C31552482
:100060008031EC00EA01EB01A03084000030850013
:100070002C308C31C7248031203084000130850041
:1000800020308C31C72480317E1020008731522FE0
:100090002000CB003E08D2003F08D3004008D40027
:1000A0004108D5004208D6004308D7004408D800CC
:1000B0004508D9005230860000308700473FC6000F
:1000C000C61B632865280130662800302000C70061
:1000D000C8014708D0004808D1005008510403194E
:1000E000722873289128D209D309D409D509D609D1
:1000F000D709D809D909D20A031D9128D30A031DAB
:100100009128D40A031D9128D50A031D9128D60AE7
:10011000031D9128D70A031D9128D80A031D912891
:10012000D90A2100C21B952896289B28FD30200063
:10013000EA05FF30EB0521004208803A2000C600A6
:1001400080304602031DA728013021004102031818
:10015000AA28AB28B12801302000CC000030CD0007
:10016000B928210042082000CD00210041082000CC
:10017000CC00210040082000CF0021003F082000D3
:10018000CE0050085104031DC628C728CB286A1D7D
:10019000CA28CB28CF28FF30CE07FF30CF3D1F30F5
:1001A000DA000030DB002200BF013F29FF302000D1
:1001B000DA07FF30DB3D0A30A300A401A501A60148
:1001C000A701A801A901AA015208AB005308AC007D
:1001D0005408AD005508AE005608AF005708B000EF
:1001E0005808B1005908B2008331AE238031200095
:1001F0002408B7002308B6008E317E268031200007
:100200003608303EC6005A08203E8600013087007E
:1002100046088100FF30CC07FF30CD3DFF30CE07D0
:10022000FF30CF3D0A30A300A401A501A601A7011C
:10023000A801A901AA015208AB005308AC00540858
:10024000AD005508AE005608AF005708B00058087A
:10025000B1005908B2008131B42180312000230857
:10026000D2002408D3002508D4002608D50027088A
:10027000D6002808D7002908D8002A08D90020006D
:100280005B08803AC60080304602031D49290130D0
:100290005A02031C4C294D297A2920005208530484
:1002A000540455045604570458045904031D59298D
:1002B0005A29D6284D08803AC60080304602031DD0
:1002C000632901304C02031866296729D6282000CB
:1002D0004F08803AC60080304602031D7129013064
:1002E0004E02031C742975297A292000EA187929FD
:1002F0007A29D628200050085104031D802981291D
:1003000085296A1D84298529A129FF30DA07FF3054
:10031000DB3D50085104031D8E298F2994292B3071
:10032000C9000030CA0098292D30C9000030CA0029
:100330004908C6005A08203E86000130870046085A
:1003400081005A08203EC6004608B5004F08B70095
:100350004E08B6004B08853148258031200036080C
:10036000BF003508BE0008002000B501233086001C
:1003700000308700473FB300B31FBF29C029E229DF
:100380002000A309A409A509A609A709A809A90984
:10039000AA09A30A031DDF29A40A031DDF29A50A50
:1003A000031DDF29A60A031DDF29A70A031DDF2974
:1003B000A80A031DDF29A90A031DDF29AA0A2000B4
:1003C000B501B50A2B30860000308700473F20007A
:1003D000B300B31FEC29ED29112A2000AB09AC09A9
:1003E000AD09AE09AF09B009B109B209AB0A031DE5
:1003F0000C2AAC0A031D0C2AAD0A031D0C2AAE0AF6
:10040000031D0C2AAF0A031D0C2AB00A031D0C2A77
:10041000B10A031D0C2AB20A01302000B3003308D0
:10042000B506363086000030870008302000B30063
:1004300000301E00B30B192A2308240425042604C7
:100440002704280429042A040319272A282A842A8D
:10045000B401B40A372AA335A40DA50DA60DA70D26
:10046000A80DA90DAA0D0130B3003308B407AA1FC7
:100470003A2A3B2A2B2AB635B70DB80DB90DBA0D5D
:10048000BB0DBC0DBD0D2A083202031D612A2908CF
:100490003102031D612A28083002031D612A270842
:1004A0002F02031D612A26082E02031D612A25083A
:1004B0002D02031D612A24082C02031D612A230832
:1004C0002B02031C642A652A762A2308AB0224081F
:1004D000AC3B2508AD3B2608AE3B2708AF3B2808C0
:1004E000B03B2908B13B2A08B23B3614AA36A90C06
:1004F000A80CA70CA60CA50CA40CA30C0130B402EC
:10050000031D832A842A3B2A35080319882A892A4D
:10051000A72AB609B709B809B909BA09BB09BC09BC
:10052000BD09B60A031DA72AB70A031DA72AB80AE0
:10053000031DA72AB90A031DA72ABA0A031DA72A61
:10054000BB0A031DA72ABC0A031DA72ABD0A200057
:100550003608A3003708A4003808A5003908A6000B
:100560003A08A7003B08A8003C08A9003D08AA00DB
:1005700008002100D40020005C0886008701403F6D
:10058000DE00413FDF005E0884005F088500120046
:10059000253A031DCC2ACD2A882B5C0886008701CA
:1005A0000130810741310318810A2100BF01C001D8
:1005B0002000EA01EB01FF302100C100FF30C20042
:1005C00020005C0886008701403FDE00413FDF00DD
:1005D0005E0884005F0885001200643A0319F12A5E
:1005E000F22A032B5C0886008701403FDE00413F72
:1005F000DF005E0884005F0885001200693A031D71
:10060000022B032B512B5C088600870101308107E8
:1006100041310318810A5D088600870101088400C2
:10062000850102308107003FDE00013FDF005E08E8
:100630002100CC0020005F082100CD00890D893BFE
:100640008909CE00CF00D000D100D200D3004C08E1
:100650002000BE0021004D082000BF0021004E08F0
:100660002000C00021004F082000C10021005008D8
:100670002000C200210051082000C30021005208C0
:100680002000C400210053082000C50021005408A8
:1006900080314820823120003F08DD003E08DC0028
:1006A000AD2B5C0886008701403FDE00413FDF0044
:1006B0005E0884005F0885001200253A031D612B47
:1006C000622B7D2B5C088600870101308107413158
:1006D0000318810A2530A5000030A6002100540827
:1006E0002000DE005E08A7008631D7268231013067
:1006F0002000DC000030DD00AD2B5C0886008701A7
:100700000130810741310318810ADC01DD01AD2B85
:100710005C0886008701403FDE00413FDF005E0845
:1007200084005F0885000008E000E1016008A50082
:100730006108A600210054082000E2006208A7001A
:100740008631D726823120005C088600870101307F
:10075000810741310318810A772B08002000B50179
:100760002B30860000308700473FB300B31FB92B02
:10077000BA2BDC2B2000AB09AC09AD09AE09AF09DF
:10078000B009B109B209AB0A031DD92BAC0A031D8C
:10079000D92BAD0A031DD92BAE0A031DD92BAF0AE5
:1007A000031DD92BB00A031DD92BB10A031DD92B68
:1007B000B20A2000B501B50A233086000030870058
:1007C000473F2000B300B31FE62BE72B062C200089
:1007D000A309A409A509A609A709A809A909AA099D
:1007E000A30A031D062CA40A031D062CA50A031D3B
:1007F000062CA60A031D062CA70A031D062CA80A10
:10080000031D062CA90A031D062CAA0A2000230892
:100810002404250426042704280429042A0403198F
:10082000122C132C662CB401B40A222CA335A40D6F
:10083000A50DA60DA70DA80DA90DAA0D0130B30099
:100840003308B407AA1F252C262C162C2A0832029E
:10085000031D442C29083102031D442C28083002B2
:10086000031D442C27082F02031D442C26082E02AA
:10087000031D442C25082D02031D442C24082C02A2
:10088000031D442C23082B02031C472C482C582CF6
:100890002308AB022408AC3B2508AD3B2608AE3B41
:1008A0002708AF3B2808B03B2908B13B2A08B23BD8
:1008B000AA36A90CA80CA70CA60CA50CA40CA30C7A
:1008C0000130B402031D652C662C262C3508031953
:1008D0006A2C6B2C892CAB09AC09AD09AE09AF09A8
:1008E000B009B109B209AB0A031D892CAC0A031D7A
:1008F000892CAD0A031D892CAE0A031D892CAF0A71
:10090000031D892CB00A031D892CB10A031D892CF3
:10091000B20A20002B08A3002C08A4002D08A50073
:100920002E08A6002F08A7003008A8003108A9004B
:100930003208AA00080028302100DC005C082000F2
:10094000AC006B308531F32584312100DD005D087A
:10095000CB002930DC005C082000AC006B30853116
:10096000F32584312100DD005D08CA002A30DC0057
:100970005C082000AC006B308531F3258431210008
:10098000DD005D08C9002B30DC005C082000AC00F5
:100990006B308531F32584312100DD005D08C8000E
:1009A0002C30DC005C082000AC006B308531F32576
:1009B00084312100DD005D08C7002D30DC005C08BB
:1009C0002000AC006B308531F32584312100DD003F
:1009D0005D08C6004B08DC00DD014A08DE00DF01CF
:1009E0005E08DF00DE015C085E07E1005D085F3D38
:1009F000E2004908DC00DD014808DE00DF015E0896
:100A0000DF00DE015C085E07E3005D085F3DE40097
:100A10004708DC00DD014608DE00DF015E08DF007C
:100A2000DE015C085E07E5005D085F3DE60005301D
:100A30002100DD000F30DC00F130890B1D2DDC0BB7
:100A40001D2DDD0B1D2D20302100D8009030D90048
:100A50006208DB006108DA008E3107268431293014
:100A60002100D8009030D9006408DB006308DA0068
:100A70008E310726843132302100D8009030D900E1
:100A80006608DB006508DA008E310726843108002D
:100A90002000BD006A1C4D2D4E2D562D3D08B8007E
:100AA0003808AD0035088F314E2785312000B71B3F
:100AB0005A2D5B2D602D3708BC003608BB00622D17
:100AC000BB01BC01B901BA01762D20302000A50080
:100AD0000030A6003D08B8003808A7008631D726A8
:100AE000853101302000B9070030BA3D3A08803A1C
:100AF000B8003C08803A3802031D802D3B083902BB
:100B0000031C832D842D652D20006A18882D892DC6
:100B1000912D3D08B8003808AD0035088F314E27BB
:100B20008531200035088E316326853120003B0851
:100B30002307B5003C08243DB60008008C31C124D1
:100B40008531003A0319A52DA62DD62DB32D8C3154
:100B500094248531F22D8C3199248531F22D8C31FC
:100B6000A3248531F22D21002F08FA007A08F9001C
:100B70000630A03E86008701413F8A00403F0A00C0
:100B80008531FB00FC017C08003A0319C82DAF2D0C
:100B90007B08013A0319AF2D033A0319A72D013A37
:100BA0000319AB2D073A0319AF2DAF2D21003C10CF
:100BB0001730A03E86008701403F84008501810AEE
:100BC00000088C318A24853101302100B8020030C0
:100BD000B93B38083904031DEE2DEF2DF12D0630F9
:100BE000F22D033008002000AE002A30AD002D08A1
:100BF000B2000230B0000030B10020002E08863173
:100C000045268531003A0319062E072EFD2D8E301C
:100C10002000A8000D30A9003230AD002D08AA0038
:100C20008731F227853101302000A3000030A40075
:100C30002C308E311C26853100302000A800A90000
:100C4000AA018D314E2585318C31BC2485318E3100
:100C5000BA2685312000AD002D08AF002F030319FF
:100C6000322E332E272E2F08031D372E382E392EE5
:100C7000432EFF30B007FF30B13D30083104031D73
:100C8000422E432EFD2D320808002000A600A701A9
:100C9000A70A21003C194D2E4E2E8E2E200026082C
:100CA000A50025082100B600BC103C153C100E30F4
:100CB0002000A50025082100BA00F430B40001305E
:100CC000B500BC155730A0000C30A100AC01573066
:100CD000A2000C30A300AD015730A4000C30A500D9
:100CE000AE015730A6000C30A700AF010230A800BB
:100CF0000030A900B00182302000A3000C30A40015
:100D00008C31F42486318C316B2486318D31412530
:100D100086318C31772486312000A70120002708F6
:100D200008008C3162248631FA00210037088600E1
:100D300087017A0881000130FA007A08B70701308C
:100D4000B8020030B93B380839040319A82EA92E7F
:100D5000AE2E8C317E2486310530D62EBC15B82EB1
:100D60008C31B2248631D62E8C31AD248631D62EEC
:100D70002C08FA007A08F90021088A0020080A00E5
:100D80008631FB00FC017C08003A0319C82EB42E02
:100D90007B08013A0319B42E033A0319B02E013A25
:100DA0000319B02E073A0319B42EB42E0800200000
:100DB00027080319DC2EDD2EE22E2708031DE12E65
:100DC000E22EE72E25088C31D4248631192F2708EE
:100DD000083E86008701160001040319F02EF12E4B
:100DE0000F2F2708083E86008701403FA800413F9B
:100DF000A9002708023E86008701403FAA00413F24
:100E0000AB002B08803AAC002908803A2C02031D65
:100E10000B2F28082A0203180E2F0F2F192F20003E
:100E20002708023E860087010130810741310318FF
:100E3000810A080022008C018D018E0137302100CB
:100E40008C0070308D00FF308E00E93023008E0062
:100E500050308D0037308C0024008D018C018E01C4
:100E600025008C018D018E01373026008C00F0307A
:100E70008D00FF308E003F3027008C00F0308D0059
:100E8000FF308E000D303C00A4001230A000143062
:100E90003D009F001930A1001830A20011303C0025
:100EA000A10008008D31F42587318B170B172030F6
:100EB0002100E70067082000AC00C8302100E800EE
:100EC00068082000AD006B308731892787312E30CC
:100ED0002100E70067082000AC00C0302100E800D6
:100EE00068082000AD006B30873189278731843155
:100EF0009B24873129302100E8009630E7007F30BD
:100F0000890B802FE70B802FE80B802F772F803104
:100F100028282000AF0020002F0886314526873181
:100F2000003A0319942F952F8B2F7D302000A800B5
:100F30000D30A9002D30AE002E08AA008731F2270F
:100F4000873101302000A3000030A4002C308E3106
:100F50001C26873100302000A800A900AA018D318D
:100F60004E2587318C31BC2487318E31BA268731AA
:100F7000013A0319BC2FBD2FB52F08002000E50052
:100F8000210056082000E700210055082000E60057
:100F90002100BD01BE01E22F6630E3006308DC00E2
:100FA000210057082000E4006408DD006508823154
:100FB000B922873120005C082100BD0720005D08B0
:100FC0002100BE3D200066088400670885001200ED
:100FD000031DEB2FEC2FCC2F21003E08D6003D083F
:100FE000D500080020002908A4002808A3002A082A
:100FF000AB002B08A50000308F3127278731080070
:1018AA000F340F3401300800240096140800240075
:1018BA0016150800240096150800240011080800CF
:1018CA0020009115080020009111080020009111B4
:1018DA000800240095120800210091110800240034
:1018EA0016140800210091150800240096161616F1
:1018FA00080024009612161608008F31A3278C318F
:10190A0008001630210097000800F0007008240033
:10191A00910008002100BC10BB010E3008008C3178
:10192A0059248C31013008008C3159248C31023011
:10193A0008008C3159248C31013008008C315C2428
:10194A008C31003008008C317E248C31053008003F
:10195A008C317A248C310A3008008C317A248C310B
:10196A00093008002100BC10BB010E30080000300D
:10197A008E319A268C3108002400160E890C890CA7
:10198A0001390800640080010131890BC82C003438
:10199A0021003C108C315F248C3104300800200077
:1019AA00A40024088D312A258C31080021003C141A
:1019BA0036358C318A248C3103300800320091018B
:1019CA0092019301940195019601080021003C14AB
:1019DA000314360D8C318A248C310530080020001E
:1019EA0024082100C400200023082100C3000800A5
:1019FA00200024082100EA00200023082100E90031
:101A0A000800200024082100EE00200023082100FD
:101A1A00ED000800200024082100EC002000230823
:101A2A002100EB000800240094010830950096017B
:101A3A004F309200951208006030320099009B01E5
:101A4A009D0107309F009E0108002000A300111E7F
:101A5A002F2D302D2C2D230823009A0008007608FC
:101A6A00F1007508F0007708F8007808F2000030F5
:101A7A008E31DB268D3108002400951A452D462D1E
:101A8A004D2D94010830950096014F30920095161D
:101A9A00080020002908A4002808A3002A08AB008F
:101AAA002B08A50002308F3127278D310800F3005B
:101ABA002100BC1D612D622D6B2D7308F200720886
:101ACA00B7007108B9007008B800BC1108000230EC
:101ADA00F0000030F10079088D315C258D3100303D
:101AEA00F500F600F7018D3134258D3104300800F8
:101AFA000130F0000030F10079088D315C258D311C
:101B0A000030F500F600F7018D3134258D310430AF
:101B1A0008000130F0000030F10079088D315C25B1
:101B2A008D310030F500F600F7018D3134258D3105
:101B3A00023008000230F0000030F10079088D31DF
:101B4A005C258D310030F500F600F7018D31342522
:101B5A008D31023008000230F0000030F1007908BF
:101B6A008D315C258D310030F500F600F7018D319D
:101B7A0034258D31043008000130F0000030F100C6
:101B8A0079088D315C258D310030F500F600F701BA
:101B9A008D3134258D31023008000230F0000030DA
:101BAA00F10079088D315C258D310030F500F600A1
:101BBA00F7018D3134258D31023008000130F000F3
:101BCA000030F10079088D315C258D310030F50047
:101BDA00F600F7018D3134258D31043008008C313F
:101BEA00E3248D318D3118258D3187311A278D31B6
:101BFA008D3121258D318C3186248D318F3101270C
:101C0A008D310800DA302000E8006808E900210078
:101C1A005908D6005808D50069302000E80068083D
:101C2A002100D70000308731BE278E3108002000FE
:101C3A00A6002100BC1D222E232E322E20002608AB
:101C4A00A50025082100B700200024082100B900BA
:101C5A00200023082100B800BC110800790886007A
:101C6A008701403FF000413FF1007908023E8600BB
:101C7A00870101088D315C258E310030F500F600B0
:101C8A00F7018D3134258E3102300800790886003B
:101C9A008701403FF000413FF1007908023E86008B
:101CAA00870101088D315C258E310030F500F60080
:101CBA00F7018D3134258E31023008002000A7004B
:101CCA002708A5002508A6006E2E0130A5002508C4
:101CDA00A70727088600013087000108031D762E12
:101CEA00772E6A2E26082702A300A401A31BA403A9
:101CFA00080020003708803AB80080303802031DF7
:101D0A00882E0130360203188B2E8C2E992E200035
:101D1A003609B8003709B900B80A0319B90A3808E8
:101D2A00B6003908B700992E08002000A400A501C2
:101D3A00A50A2100BC18A22EA32EB72EBC1420007F
:101D4A00A50124080319AA2EAB2EAF2E2100BA0131
:101D5A00BA0AB42E0230A30023082100BA008C313B
:101D6A0074248E312000250808002000A401A40A4A
:101D7A002100BC18C12EC22ED82E3C11FF302000E3
:101D8A00A30023082100B6008C316B248E318C31DC
:101D9A0071248E318C316E248E3121003B08200053
:101DAA00A3002308A400200024080800F4007008F7
:101DBA0071040319E12EE22EF32E7435A03E86003B
:101DCA0087017008C03F7108C13F7208F3007408A8
:101DDA00AC3E8600870173088100002F7435A03E4F
:101DEA00860087015730C03F0C30C13F7408AC3EB3
:101DFA008600870181010800083023009F00903087
:101E0A009D0024309E0040309B0003309C0000302F
:101E1A002000A3000030A4008D3106258F31003048
:101E2A002000A3000030A4008D310F258F3100302F
:101E3A002000A3000030A4008C31FD248F31210042
:101E4A00C50108002000A7002308240403192E2F27
:101E5A002F2F402F2735A03E860087012308C03F39
:101E6A002408C13F2508A6002708AC3E8600870142
:101E7A00260881004D2F2735A03E8600870157305E
:101E8A00C03F0C30C13F2708AC3E86008701810164
:101E9A0008002000B400B201B301662F3108AE0079
:101EAA00AF012E08A5002F08A6002D08B0003008A3
:101EBA00A7008631D7268F3101302000B2070030C3
:101ECA00B33D32083407AE002E0886000130870081
:101EDA000108AF002F08B1003108031D752F762FB6
:101EEA00532F080021003C100230FA007A08BB0088
:101EFA00862F8C319E248F31A22F8C31A3248F31CF
:101F0A00A22F2E08FA007A08F9000430A03E8600B3
:101F1A008701413F8A00403F0A008F31FB00FC01E4
:101F2A007C08003A03199A2F822F7B08023A031978
:101F3A007E2F013A03197E2F822F08008C316824E4
:101F4A008F3121003C1CAA2FAB2FB92F8C31C12411
:101F5A008F31003A0319B22FB32FB92F0F30200057
:101F6A00A00020082100BA0021003A082000A000A1
:101F7A00A101A035A10D0030200784009030213D39
:101F8A008500013F8A00003F0A008F312000A2002D
:101F9A0022082100BA0008002100BC15E12F8C316B
:101FAA009E248F31FF2F8C3165248F310330FF2F10
:101FBA008C31A3248F31FF2F2C08FA007A08F900FC
:101FCA0021088A0020080A008F31FB00FC017C08E6
:101FDA00003A0319F12FDD2F7B08013A0319DD2F8F
:101FEA00033A0319D42F013A0319D42F073A0319D4
:101FFA00D82FDD2F08008F340C34EB340C34DB344B
:10200A000C349E34053491340634CD340C34D13436
:10201A000F3494340C3499340C349E340C34A33475
:10202A000C34A8340C34AD340C34B2340C34B73418
:10203A000C3477340F34203458343A34203425346D
:10204A0064340A340D340034203459343A34203498
:10205A00253464340A340D34003420345A343A3482
:0C206A002034253464340A340D34003472
:020000040001F9
:08000000FF3FFF3FFF3FFF3F00
:08000E00EC3FF33FFF3FFF3F11
:00000001FF
