:1000000080312828013008007E1480310B1F092818
:100010000A2826282100111D0E280F281B28200041
:10002000111D132814281B28210048088A0047089E
:100030000A00803126282100911D1F28202826280B
:100040002000911D24282528262814287E10090028
:1000500080312A288B31CA238031FD008B31C9239E
:100060008031EC00EA01EB01A03084000030850013
:1000700030308C31392480312030840001308500CB
:1000800020308C31392480317E1020008731A52F1B
:100090002000CB003E08D2003F08D3004008D40027
:1000A0004108D5004208D6004308D7004408D800CC
:1000B0004508D9005230860000308700473FC6000F
:1000C000C61B632865280130662800302000C70061
:1000D000C8014708D0004808D1005008510403194E
:1000E000722873289128D209D309D409D509D609D1
:1000F000D709D809D909D20A031D9128D30A031DAB
:100100009128D40A031D9128D50A031D9128D60AE7
:10011000031D9128D70A031D9128D80A031D912891
:10012000D90A2100C21B952896289B28FD30200063
:10013000EA05FF30EB0521004208803A2000C600A6
:1001400080304602031DA728013021004102031818
:10015000AA28AB28B12801302000CC000030CD0007
:10016000B928210042082000CD00210041082000CC
:10017000CC00210040082000CF0021003F082000D3
:10018000CE0050085104031DC628C728CB286A1D7D
:10019000CA28CB28CF28FF30CE07FF30CF3D1F30F5
:1001A000DA000030DB002200BF013F29FF302000D1
:1001B000DA07FF30DB3D0A30A300A401A501A60148
:1001C000A701A801A901AA015208AB005308AC007D
:1001D0005408AD005508AE005608AF005708B000EF
:1001E0005808B1005908B2008431E624803120005B
:1001F0002408B7002308B6008D31FE258031200089
:100200003608303EC6005A08203E8600013087007E
:1002100046088100FF30CC07FF30CD3DFF30CE07D0
:10022000FF30CF3D0A30A300A401A501A601A7011C
:10023000A801A901AA015208AB005308AC00540858
:10024000AD005508AE005608AF005708B00058087A
:10025000B1005908B2008231EC228031200023081D
:10026000D2002408D3002508D4002608D50027088A
:10027000D6002808D7002908D8002A08D90020006D
:100280005B08803AC60080304602031D49290130D0
:100290005A02031C4C294D297A2920005208530484
:1002A000540455045604570458045904031D59298D
:1002B0005A29D6284D08803AC60080304602031DD0
:1002C000632901304C02031866296729D6282000CB
:1002D0004F08803AC60080304602031D7129013064
:1002E0004E02031C742975297A292000EA187929FD
:1002F0007A29D628200050085104031D802981291D
:1003000085296A1D84298529A129FF30DA07FF3054
:10031000DB3D50085104031D8E298F2994292B3071
:10032000C9000030CA0098292D30C9000030CA0029
:100330004908C6005A08203E86000130870046085A
:1003400081005A08203EC6004608B5004F08B70095
:100350004E08B6004B088531D32580312000360881
:10036000BF003508BE00080028302100E00060080A
:100370002000AC006B3086317E2681312100E10007
:100380006108CF002930E00060082000AC006B302D
:1003900086317E2681312100E1006108CE002A30BD
:1003A000E00060082000AC006B3086317E26813191
:1003B0002100E1006108CD002B30E0006008200042
:1003C000AC006B3086317E2681312100E10061086E
:1003D000CC002C30E00060082000AC006B3086318F
:1003E0007E2681312100E1006108CB002D30E00044
:1003F00060082000AC006B3086317E268131210000
:10040000E1006108CA004F08E000E1014E08E20087
:10041000E3016208E300E20160086207E6006108A8
:10042000633DE7004D08E000E1014C08E200E30114
:100430006208E300E20160086207E8006108633DCA
:10044000E9004B08E000E1014A08E200E30162082C
:10045000E300E20160086207EA006108633DEB0027
:1004600005302100E1000F30E000F130890B362A21
:10047000E00B362AE10B362A20302100DC009030D8
:10048000DD006708DF006608DE008D3187258131D9
:100490002E302100DC009030DD006908DF006808A4
:1004A000DE008D31872581313C302100DC00903029
:1004B000DD006B08DF006A08DE008D3187258131A1
:1004C000210067082000B700210066082000B60060
:1004D0008D31FE258131200036082100E00020000A
:1004E00037082100E10069082000B70021006808F2
:1004F0002000B6008D31FE25813120003608210014
:100500006007E200200037082100613DE3006B082E
:100510002000B70021006A082000B6008D31FE25BA
:1005200081312000360821006207E40020003708EE
:100530002100633DE5006408EC3EEC00FA30653DC7
:10054000ED004A30DC009030DD006D08DF006C0803
:10055000DE008D318725813121004408803AE0009A
:100560006D08803A6002031DB72A6C084302031825
:10057000BA2ABB2AC32A21006D08C4006C08C30034
:10058000C501C601D42A3C30210045064604031D9E
:10059000CA2ACB2AD02AC301C401C501C601D42A64
:1005A0000130C5070030C63D5730DC009030DD001B
:1005B0004408DF004308DE008D3187258131623039
:1005C0002100DC009030DD004608DF004508DE0039
:1005D0008D318725813108002000B5012330860048
:1005E00000308700473FB300B31FF72AF82A1A2BC1
:1005F0002000A309A409A509A609A709A809A90912
:10060000AA09A30A031D172BA40A031D172BA50A69
:10061000031D172BA60A031D172BA70A031D172B53
:10062000A80A031D172BA90A031D172BAA0A2000CD
:10063000B501B50A2B30860000308700473F200007
:10064000B300B31F242B252B492B2000AB09AC0989
:10065000AD09AE09AF09B009B109B209AB0A031D72
:10066000442BAC0A031D442BAD0A031D442BAE0AD8
:10067000031D442BAF0A031D442BB00A031D442B5A
:10068000B10A031D442BB20A01302000B300330825
:10069000B506363086000030870008302000B300F1
:1006A00000301E00B30B512B23082404250426041C
:1006B0002704280429042A0403195F2B602BBC2B70
:1006C000B401B40A6F2BA335A40DA50DA60DA70D7B
:1006D000A80DA90DAA0D0130B3003308B407AA1F55
:1006E000722B732B632BB635B70DB80DB90DBA0D40
:1006F000BB0DBC0DBD0D2A083202031D992B290824
:100700003102031D992B28083002031D992B27085D
:100710002F02031D992B26082E02031D992B250855
:100720002D02031D992B24082C02031D992B23084D
:100730002B02031C9C2B9D2BAE2B2308AB02240801
:10074000AC3B2508AD3B2608AE3B2708AF3B28084D
:10075000B03B2908B13B2A08B23B3614AA36A90C93
:10076000A80CA70CA60CA50CA40CA30C0130B40279
:10077000031DBB2BBC2B732B35080319C02BC12BBE
:10078000DF2BB609B709B809B909BA09BB09BC0911
:10079000BD09B60A031DDF2BB70A031DDF2BB80AFC
:1007A000031DDF2BB90A031DDF2BBA0A031DDF2B44
:1007B000BB0A031DDF2BBC0A031DDF2BBD0A200073
:1007C0003608A3003708A4003808A5003908A60099
:1007D0003A08A7003B08A8003C08A9003D08AA0069
:1007E00008002100D80020005C0886008701403FF7
:1007F000DE00413FDF005E0884005F0885001200D4
:10080000253A031D042C052CC02C5C0886008701AA
:100810000130810741310318810A2100BF01C00165
:100820002000EA01EB01FF302100C100FF30C200CF
:1008300020005C0886008701403FDE00413FDF006A
:100840005E0884005F0885001200643A0319292CB1
:100850002A2C3B2C5C0886008701403FDE00413F8C
:10086000DF005E0884005F0885001200693A031DFE
:100870003A2C3B2C892C5C088600870101308107CB
:1008800041310318810A5D08860087010108840050
:10089000850102308107003FDE00013FDF005E0876
:1008A0002100D00020005F082100D100890D893B84
:1008B0008909D200D300D400D500D600D700500853
:1008C0002000BE00210051082000BF002100520876
:1008D0002000C000210053082000C100210054085E
:1008E0002000C200210055082000C3002100560846
:1008F0002000C400210057082000C500210058082E
:1009000080314820833120003F08DD003E08DC00B4
:10091000E52C5C0886008701403FDE00413FDF0098
:100920005E0884005F0885001200253A031D992C9B
:100930009A2CB52C5C088600870101308107413173
:100940000318810A2530A5000030A60021005808B0
:100950002000DE005E08A700873162278331013066
:100960002000DC000030DD00E52C5C0886008701FB
:100970000130810741310318810ADC01DD01E52CDA
:100980005C0886008701403FDE00413FDF005E08D3
:1009900084005F0885000008E000E1016008A50010
:1009A0006108A600210058082000E2006208A700A4
:1009B00087316227833120005C088600870101307F
:1009C000810741310318810AAF2C08002000B501CE
:1009D0002B30860000308700473FB300B31FF12C57
:1009E000F22C142D2000AB09AC09AD09AE09AF09FA
:1009F000B009B109B209AB0A031D112DAC0A031DE0
:100A0000112DAD0A031D112DAE0A031D112DAF0AC4
:100A1000031D112DB00A031D112DB10A031D112D47
:100A2000B20A2000B501B50A2330860000308700E5
:100A3000473F2000B300B31F1E2D1F2D3E2D200069
:100A4000A309A409A509A609A709A809A909AA092A
:100A5000A30A031D3E2DA40A031D3E2DA50A031D56
:100A60003E2DA60A031D3E2DA70A031D3E2DA80AF2
:100A7000031D3E2DA90A031D3E2DAA0A20002308AE
:100A80002404250426042704280429042A0403191D
:100A90004A2D4B2D9E2DB401B40A5A2DA335A40D19
:100AA000A50DA60DA70DA80DA90DAA0D0130B30027
:100AB0003308B407AA1F5D2D5E2D4E2D2A08320281
:100AC000031D7C2D29083102031D7C2D28083002CE
:100AD000031D7C2D27082F02031D7C2D26082E02C6
:100AE000031D7C2D25082D02031D7C2D24082C02BE
:100AF000031D7C2D23082B02031C7F2D802D902DA0
:100B00002308AB022408AC3B2508AD3B2608AE3BCE
:100B10002708AF3B2808B03B2908B13B2A08B23B65
:100B2000AA36A90CA80CA70CA60CA50CA40CA30C07
:100B30000130B402031D9D2D9E2D5E2D3508031935
:100B4000A22DA32DC12DAB09AC09AD09AE09AF098A
:100B5000B009B109B209AB0A031DC12DAC0A031DCE
:100B6000C12DAD0A031DC12DAE0A031DC12DAF0A53
:100B7000031DC12DB00A031DC12DB10A031DC12DD6
:100B8000B20A20002B08A3002C08A4002D08A50001
:100B90002E08A6002F08A7003008A8003108A900D9
:100BA0003208AA0008002000BD006A1CD82DD92DEB
:100BB000E12D3D08B8003808AD0035088E31AD266E
:100BC00085312000B71BE52DE62DEB2D3708BC0045
:100BD0003608BB00ED2DBB01BC01B901BA01012EE5
:100BE00020302000A5000030A6003D08B8003808DD
:100BF000A70087316227853101302000B907003016
:100C0000BA3D3A08803AB8003C08803A3802031DE1
:100C10000B2E3B083902031C0E2E0F2EF02D200048
:100C20006A18132E142E1C2E3D08B8003808AD008B
:100C300035088E31AD268531200035088D31E3250C
:100C4000853120003B082307B5003C08243DB60051
:100C500008008C3133248631003A0319302E312EAE
:100C6000612E3E2E8C31062486317D2E8C310B2454
:100C700086317D2E8C31152486317D2E21002F0862
:100C8000FA007A08F9000630A03E86008701413F4D
:100C90008A00403F0A008631FB00FC017C08003AD4
:100CA0000319532E3A2E7B08013A03193A2E033AC0
:100CB0000319322E013A0319362E073A03193A2E38
:100CC0003A2E21003C101730A03E86008701403F9D
:100CD00084008501810A00088B31FC2386310130B4
:100CE0002100B8020030B93B38083904031D792EC1
:100CF0007A2E7C2E06307D2E033008002000AE00B8
:100D00002A30AD002D08B2000230B0000030B10032
:100D100020002E088631D0268631003A0319912E04
:100D2000922E882E0E302000A8000D30A9003230FF
:100D3000AD002D08AA008C31CE2486310130200070
:100D4000A3000030A4002C308D319C25863100306A
:100D50002000A800A900AA018C31C02486318C3162
:100D60002E2486318731DD2786312000AD002D0805
:100D7000AF002F030319BD2EBE2EB22E2F08031D68
:100D8000C22EC32EC42ECE2EFF30B007FF30B13D91
:100D900030083104031DCD2ECE2E882E32080800D7
:100DA0002000A600A701A70A21003C19D82ED92EA1
:100DB000192F20002608A50025082100B600BC1028
:100DC0003C153C100E302000A50025082100BA007B
:100DD000F430B4000130B500BC150230A000003082
:100DE000A100AC010230A2000030A300AD0102302E
:100DF000A4000030A500AE010230A6000030A7001C
:100E0000AF01FE30A8000730A900B001F430200087
:100E1000A3000B30A4008C31662486318B31DD2396
:100E200086318C31B32486318B31E9238631200021
:100E3000A7012000270808008B31D4238731FA004E
:100E400021003708860087017A0881000130FA0006
:100E50007A08B7070130B8020030B93B38083904C6
:100E60000319332F342F392F8B31F023873105307D
:100E7000612FBC15432F8C3124248731612F8C3195
:100E80001F248731612F2C08FA007A08F900210805
:100E90008A0020080A008731FB00FC017C08003A28
:100EA0000319532F3F2F7B08013A03193F2F033AB1
:100EB00003193B2F013A03193B2F073A03193F2F20
:100EC0003F2F0800200027080319672F682F6D2F78
:100ED0002708031D6C2F6D2F722F25088C31462497
:100EE0008731A42F2708083E8600870116000104D9
:100EF00003197B2F7C2F9A2F2708083E8600870135
:100F0000403FA800413FA9002708023E8600870114
:100F1000403FAA00413FAB002B08803AAC002908B3
:100F2000803A2C02031D962F28082A020318992FB5
:100F30009A2FA42F20002708023E86008701013047
:100F4000810741310318810A08008D3174258731EA
:100F50008B170B1720302200C40044082000AC007F
:100F6000C8302200C50045082000AD006B308F312D
:100F7000932787312E302200C40044082000AC00A3
:100F8000C0302200C50045082000AD006B308F3115
:100F9000932787318131B421873115302200C50074
:100FA0004B30C400BE30890BD32FC40BD32FC50BDD
:100FB000D32F0000CA2F803128282000A401A40AC2
:100FC0002100BC18E42FE52FFB2F3C11FF3020003F
:100FD000A30023082100B6008B31DD2387318B313C
:100FE000E32387318B31E023873121003B08200048
:100FF000A3002308A40020002408080005300800EE
:101792000F340F3424009614080024001615080094
:1017A2002400961508002400110808002000911555
:1017B2000800200091110800200091110800240067
:1017C2009512080021009111080024001614080047
:1017D2002100911508002400961616160800240010
:1017E2009612161608008F3102278B310800163028
:1017F200210097000800F000700824009100080002
:101802002100BC10BB010E3008008B31CB238C3180
:10181200013008008B31CB238C31023008008B3130
:10182200CB238C31013008008B31CE238C31003038
:1018320008008B31F0238C31053008008B31EC230A
:101842008C310A3008008B31EC238C3109300800CE
:101852002100BC10BB010E30080000308E311A2668
:101862008C3108002400160E890C890C01390800FD
:10187200640080010131890B3A2C003421003C10B4
:101882008B31D1238C31043008002000A4002408BD
:101892008C319C248C31080021003C1436358B316C
:1018A200FC238C3103300800320091019201930134
:1018B200940195019601080021003C140314360D91
:1018C2008B31FC238C3105300800200024082100D4
:1018D200C800200023082100C700080020002408B7
:1018E2002200C100200023082200C00008002000BE
:1018F20024082100EF00200023082100EE00080048
:10190200200024082200C300200023082200C20075
:101912000800240094010830950096014F3092008F
:10192200951208006030320099009B019D0107303A
:101932009F009E0108002000A300111EA12CA22CD2
:101942009E2C230823009A0008007608F1007508EF
:10195200F0007708F8007808F20000308E313A265D
:101962008C3108002400951AB72CB82CBF2C940196
:101972000830950096014F3092009516080020001D
:101982002908A4002808A3002A08AB002B08A500F8
:1019920002308E3186268C31080020002908A400EE
:1019A2002808A3002A08AB002B08A50000308E31BE
:1019B20086268C310800F3002100BC1DE12CE22CAC
:1019C200EB2C7308F2007208B7007108B9007008B6
:1019D200B800BC1108000230F0000030F1007908B4
:1019E2008C31DC248C310030F500F600F7018C31AB
:1019F200A6248C31043008000130F0000030F100E0
:101A020079088C31DC248C310030F500F600F701C6
:101A12008C31A6248C31043008000130F0000030F3
:101A2200F10079088C31DC248D310030F500F600AC
:101A3200F7018C31A6248D31023008000230F0000B
:101A42000030F10079088C31DC248D310030F50052
:101A5200F600F7018C31A6248D31023008000230E5
:101A6200F0000030F10079088C31DC248D31003037
:101A7200F500F600F7018C31A6248D310430080000
:101A82000130F0000030F10079088C31DC248D3116
:101A92000030F500F600F7018C31A6248D310230BA
:101AA20008000230F0000030F10079088C31DC24AB
:101AB2008D310030F500F600F7018C31A6248D310E
:101AC200023008000130F0000030F10079088C315A
:101AD200DC248D310030F500F600F7018C31A624AC
:101AE2008D31043008008C3155248D318C318A249B
:101AF2008D318F31C8278D318C3193248D318B31CB
:101B0200F8238D318E3160268D310800DE302000C1
:101B1200E8006808E90021005D08DA005C08D900E5
:101B220069302000E80068082100DB0000308F31B6
:101B32005F278D3108002000A6002100BC1DA22DC8
:101B4200A32DB22D20002608A50025082100B700EC
:101B5200200024082100B900200023082100B80039
:101B6200BC110800790886008701403FF000413F20
:101B7200F1007908023E8600870101088C31DC24DD
:101B82008D310030F500F600F7018C31A6248D313D
:101B920002300800790886008701403FF000413F8B
:101BA200F1007908023E8600870101088C31DC24AD
:101BB2008D310030F500F600F7018C31A6248D310D
:101BC200023008002000A7002708A5002508A6006B
:101BD200EE2D0130A5002508A70727088600013051
:101BE20087000108031DF62DF72DEA2D260827028E
:101BF200A300A401A31BA403080020003708803A15
:101C0200B80080303802031D082E01303602031856
:101C12000B2E0C2E192E20003609B8003709B900F8
:101C2200B80A0319B90A3808B6003908B700192EDC
:101C320008002000A400A501A50A2100BC18222E3C
:101C4200232E372EBC142000A501240803192A2EA6
:101C52002B2E2F2E2100BA01BA0A342E0230A300F5
:101C620023082100BA008B31E6238E31200025089B
:101C72000800F400700871040319402E412E522E00
:101C82007435A03E860087017008C03F7108C13FCD
:101C92007208F3007408AC3E860087017308810065
:101CA2005F2E7435A03E860087010230C03F0030AF
:101CB200C13F7408AC3E86008701810108000830EC
:101CC20023009F0090309D0024309E0040309B00F6
:101CD20003309C0000302000A3000030A4008C31AF
:101CE20078248E3100302000A3000030A4008C3113
:101CF20081248E3100302000A3000030A4008C31FA
:101D02006F248E312100C90108002000A70023089A
:101D1200240403198D2E8E2E9F2E2735A03E860079
:101D220087012308C03F2408C13F2508A6002708D1
:101D3200AC3E8600870126088100AC2E2735A03EE6
:101D4200860087010230C03F0030C13F2708AC3E09
:101D520086008701810108002000B400B201B301AE
:101D6200C52E3108AE00AF012E08A5002F08A6002F
:101D72002D08B0003008A700873162278E3101306C
:101D82002000B2070030B33D32083407AE002E08FF
:101D92008600013087000108AF002F08B10031082A
:101DA200031DD42ED52EB22E080021003C10023085
:101DB200FA007A08BB00E52E8C3110248E31012FF7
:101DC2008C3115248E31012F2E08FA007A08F90081
:101DD2000430A03E86008701413F8A00403F0A004E
:101DE2008E31FB00FC017C08003A0319F92EE12E2A
:101DF2007B08023A0319DD2E013A0319DD2EE12E8A
:101E020008008B31DA238F3121003C1C092F0A2F65
:101E1200182F8C3133248F31003A0319112F122FCE
:101E2200182F0F302000A00020082100BA00210046
:101E32003A082000A000A101A035A10D0030200722
:101E420084009030213D8500013F8A00003F0A0056
:101E52008F312000A20022082100BA0008002100D0
:101E6200BC15402F8C3110248F315E2F8B31D7233C
:101E72008F3103305E2F8C3115248F315E2F2C0869
:101E8200FA007A08F90021088A0020080A008F3136
:101E9200FB00FC017C08003A0319502F3C2F7B0801
:101EA200013A03193C2F033A0319332F013A03195C
:101EB200332F073A0319372F3C2F08002000E50083
:101EC20021005A082000E700210059082000E600FE
:101ED2002100BD01BE01832F6630E3006308DC00F0
:101EE20021005B082000E4006408DD0065088331FE
:101EF200F1238F3120005C082100BD0720005D081E
:101F02002100BE3D2000660884006708850012009B
:101F1200031D8C2F8D2F6D2F21003E08DA003D0806
:101F2200D90008002000AF0020002F088631D026FB
:101F32008F31003A03199E2F9F2F952FFD302000DD
:101F4200A8000C30A9002D30AE002E08AA008C315A
:101F5200CE248F3101302000A3000030A4002C30A9
:101F62008D319C258F3100302000A800A900AA01E4
:101F72008C31C0248F318C312E248F318731DD2773
:101F82008F31013A0319C62FC72FBF2F0800220035
:101F92008C018D018E01373021008C0070308D0054
:101FA200FF308E00E93023008E0050308D00373034
:101FB2008C0024008D018C018E0125008C018D0185
:101FC2008E01373026008C00F0308D00FF308E00FD
:101FD2003F3027008C00F0308D00FF308E000D3036
:101FE2003C00A4001230A00014303D009F001930C4
:101FF200A1001830A20011303C00A10008000134F9
:102002000C345D340C344D340C34293406341C3415
:1020120007343F340C3430340F3406340C340B3470
:102022000C3410340C3415340C341A340C341F3480
:102032000C3424340C3429340C34D6340E34203489
:1020420064346134743461345F3478343A34203423
:10205200253464340A340D34003420346434613459
:10206200743461345F3479343A342034253464343E
:102072000A340D34003420346434613474346134ED
:102082005F347A343A342034253464340A340D34DB
:102092000034203474346F34743461346C343A3420
:1020A2002034253464340A340D34003420346D3441
:1020B200613478343A342034253464340A340D34AB
:1020C2000034203469343A342034253464340A34F8
:0420D2000D34003495
:020000040001F9
:08000000FF3FFF3FFF3FFF3F00
:08000E00EC3FF33FFF3FFF3F11
:00000001FF
