:1000000080312828053008007E1480310B1F092814
:100010000A2826282100111D0E280F281B28200041
:10002000111D132814281B2821006D088A006C0854
:100030000A00803126282100911D1F28202826280B
:100040002000911D24282528262814287E10090028
:1000500080312A28AF308400873085004030860008
:100060000130870011308F3105278031EA01EB0123
:10007000EC01C93084000030850025308E31FF2628
:100080008031203084000130850020308E31FF2601
:1000900080317E1020008731572F2000D1002100B1
:1000A000EB1B532854285928FD302000EA05FF3067
:1000B000EB0521006B08803A2000C7008030470222
:1000C000031D6528013021006A0203186828692889
:1000D0006F2801302000CF000030D00077282100A9
:1000E0006B082000D00021006A082000CF0021000A
:1000F00069082000D300210068082000D2006A1E91
:10010000822883288728FE30D207FF30D33D3E085F
:10011000D4003F08D5004008D6004108D700420867
:10012000D8004308D9004408DA004508DB001F3036
:10013000DC000030DD002200BF013829FF30200044
:10014000DC07FF30DD3D0F305405DE000030550583
:10015000DF005F08803AC70080304702031DB228E5
:100160000A305E02031CB528B628BE2820005E08AF
:10017000573EDE0000305F3DDF00C52820005E08EE
:10018000303EDE0000305F3DDF004608BF3EC70066
:10019000FF3003180030C800003048021A3003193D
:1001A00047020318D428D528F62820305E04C7005B
:1001B00000305F04C80047089F3EC900FF30483D3B
:1001C000CA0000304A021A30031949020318E9280C
:1001D000EA28F6285F08AA005E08A90087310F27E1
:1001E000803120002A08DF002908DE005E08C700F1
:1001F0005C08203E86000130870047088100FF3000
:10020000CF07FF30D03DFF30D207FF30D33D543011
:10021000860000308700403FC700413FC800423F92
:10022000C900433FCA00443FCB00453FCC00463F96
:10023000CD00473FCE0004302000CE36CD0CCC0C94
:10024000CB0CCA0CC90CC80CC70C890B1C2920008C
:100250004E08DB004D08DA004C08D9004B08D800E6
:100260004A08D7004908D6004808D5004708D400F6
:1002700020005D08803AC70080304702031D4229F4
:1002800002305C02031C45294629732920005408CA
:10029000550456045704580459045A045B04031DBA
:1002A000522953299E285008803AC70080304702BF
:1002B000031D5C2901304F0203185F2960299E2825
:1002C00020005308803AC70080304702031D6A2986
:1002D00001305202031C6D296E2973292000EA188F
:1002E000722973299E2820006A1E7729782992296D
:1002F000FF30DC07FF30DD3D4608C7005C08203ECC
:1003000086000130870047088100FF30DC07FF309E
:10031000DD3D3030C7005C08203E8600013087009C
:10032000470881005C08203EC7004708B500530815
:10033000B7005208B60051088231A822803120004F
:100340003608BF003508BE0008002100A9002000C3
:10035000600886008701403FE200413FE3006208F9
:100360008400630885001200253A031DB829B929C5
:10037000822A600886008701013081074131031815
:10038000810A2100E801E9012000EA01EB01FF30C8
:100390002100EA00FF30EB002000600886008701A2
:1003A000403FE200413FE3006208840063088500AB
:1003B0001200783A0319DD29DE29EF29600886004A
:1003C0008701403FE200413FE30062088400630888
:1003D00085001200583A031DEE29EF294B2A6008C8
:1003E00086008701403FE200413FE300620884004D
:1003F000630885000008E40064082100A8002000CC
:100400006008860087010130810741310318810AA5
:100410006108860087010108840085010230810798
:10042000003F2100A000013FA100A201A301A401FF
:10043000A501A601A70120082000BE002100210877
:100440002000BF00210022082000C0002100230856
:100450002000C100210024082000C200210025083E
:100460002000C300210026082000C4002100270826
:100470002000C500210028082000E2006208C60014
:100480002100290880314D20813120003F08E10002
:100490003E08E000A72A600886008701403FE2008E
:1004A000413FE30062088400630885001200253A9A
:1004B000031D5B2A5C2A772A6008860087010130C9
:1004C000810741310318810A2530A5000030A600BC
:1004D000210029082000E2006208A70084313724A7
:1004E000813101302000E0000030E100A72A6008DF
:1004F000860087010130810741310318810AE0013C
:10050000E101A72A600886008701403FE200413FE1
:10051000E30062088400630885000008E400E50148
:100520006408A5006508A600210029082000E6004F
:100530006608A700843137248131200060088600D6
:1005400087010130810741310318810A712A0800AF
:100550002000BD006A1CAD2AAE2AB62A3D08B800AC
:100560003808AD0035088531A62582312000B71B3B
:10057000BA2ABB2AC02A3708BC003608BB00C22AE8
:10058000BB01BC01B901BA01D62A20302000A50068
:100590000030A6003D08B8003808A7008431372491
:1005A000823101302000B9070030BA3D3A08803A64
:1005B000B8003C08803A3802031DE02A3B083902A3
:1005C000031CE32AE42AC52A20006A18E82AE92A3B
:1005D000F12A3D08B8003808AD0035088531A62558
:1005E0008231200035088631C226823120003B0846
:1005F0002307B5003C08243DB60008008E31F926DB
:100600008231003A0319052B062B362B132B8E3122
:10061000CC268231522B8E31D1268231522B8E3113
:10062000DB268231522B21005808FA007A08F900A3
:100630000630C93E86008701413F8A00403F0A00DC
:100640008331FB00FC017C08003A0319282B0F2B97
:100650007B08013A03190F2B033A0319072B013AC0
:1006600003190B2B073A03190F2B0F2B21006510D1
:100670001730C93E86008701403F84008501810A0A
:1006800000088E31C226823101302100E1020030A3
:10069000E23B61086204031D4E2B4F2B512B0630A9
:1006A000522B033008002000AE002A30AD002D0888
:1006B000B2000230B0000030B10020002E088331BB
:1006C000A5238331003A0319662B672B5D2BD130AC
:1006D0002000A8000730A9003230AD002D08AA0084
:1006E0008F318D27833101302000A3000030A4001A
:1006F0002C3087318527833100302000A800A900E5
:10070000AA018F317F2783318E31F42683318631E0
:10071000422683312000AD002D08AF002F030319BE
:10072000922B932B872B2F08031D972B982B992BFC
:10073000A32BFF30B007FF30B13D30083104031D5B
:10074000A22BA32B5D2B320808002000A600A701D6
:10075000A70A21006519AD2BAE2BEE2B2000260831
:10076000A50025082100DF00E510651565100E3095
:100770002000A50025082100E300F430DD00013051
:10078000DE00E5158F30C9000E30CA00D5018F306C
:10079000CB000E30CC00D6018F30CD000E30CE0015
:1007A000D7018F30CF000E30D000D8010230D100F9
:1007B0000030D200D901BA302000A3000E30A400CE
:1007C0008F31322783318E31A32683318731F3274E
:1007D00083318E31AF2683312000A7012000270806
:1007E00008008E319A268331FA00210060088600C5
:1007F00087017A0881000130FA007A08E0070130A9
:10080000E1020030E23B610862040319082C092C64
:100810000E2C8E31B62683310530362CE515182C7A
:100820008E31EA268331362C8E31E5268331362C03
:100830005508FA007A08F9004A088A0049080A00AF
:100840008431FB00FC017C08003A0319282C142C8D
:100850007B08013A0319142C033A0319102C013AAE
:100860000319102C073A0319142C142C080020002B
:10087000270803193C2C3D2C422C2708031D412C32
:10088000422C472C25088F3112278431792C2708D8
:10089000083E86008701160001040319502C512CD4
:1008A0006F2C2708083E86008701403FA800413F83
:1008B000A9002708023E86008701403FAA00413F69
:1008C000AB002B08803AAC002908803A2C02031DAB
:1008D0006B2C28082A0203186E2C6F2C792C200010
:1008E0002708023E86008701013081074131031845
:1008F000810A080022008C018D018E013730210011
:100900008C0070308D00FF308E00E93023008E00A7
:1009100050308D0037308C0024008D018C018E0109
:1009200025008C018D018E01373026008C00F030BF
:100930008D00FF308E003F3027008C00F0308D009E
:10094000FF308E000D303C00A4001230A0001430A7
:100950003D009F001930A1001830A20011303C006A
:10096000A10008002100AC00200068082100AE00B2
:10097000200067082100AD00E601E701D72CAD306B
:10098000AA002A082000E00069082100AB002B081B
:100990002000E10021002C088131A52184312000B4
:1009A00060082100E607200061082100E73D2D08CE
:1009B00084002E0885001200031DDF2CE02CBF2CC4
:1009C00067082000E800210066082000E700080012
:1009D0004030860001308700B73084000030850049
:1009E00011302100B50016001A00B50BF32C293088
:1009F000B50035082000AC001E308331532384310C
:100A00002100B6003608C80068302100B500E43087
:100A1000890B082DB50B082D000000302100AF0018
:100A20009030B0004808B500B6013508B10036086E
:100A3000B20087316E27843108002100E5152D2D85
:100A40008E31D62685314B2D8E319D268531033052
:100A50004B2D8E31DB2685314B2D5508FA007A0857
:100A6000F9004A088A0049080A008531FB00FC01A8
:100A70007C08003A03193D2D292D7B08013A031902
:100A8000292D033A0319202D013A0319202D073A85
:100A90000319242D292D08008E31A026853121002F
:100AA000651C532D542D622D8E31F9268531003A67
:100AB00003195B2D5C2D622D0F302000A000200853
:100AC0002100E300210063082000A000A101A0355F
:100AD000A10D6330200784008630213D8500013F51
:100AE0008A00003F0A0085312000A2002208210070
:100AF000E3000800210065100230FA007A08E400E3
:100B0000892D8E31D6268531A52D8E31DB26853176
:100B1000A52D5708FA007A08F9000430C93E86006E
:100B20008701413F8A00403F0A008531FB00FC01FC
:100B30007C08003A03199D2D852D7B08023A031984
:100B4000812D013A0319812D852D08002000B40064
:100B5000B201B301BE2D3108AE00AF012E08A500D1
:100B60002F08A6002D08B0003008A70084313724D4
:100B7000853101302000B2070030B33D3208340720
:100B8000AE002E088600013087000108AF002F0854
:100B9000B1003108031DCD2DCE2DAB2D0800200056
:100BA000A700230824040319D62DD72DE82D2735B7
:100BB000C93E860087012308C03F2408C13F25089D
:100BC000A6002708D53E8600870126088100F52D5E
:100BD0002735C93E860087018F30C03F0E30C13FA8
:100BE0002708D53E860087018101080008302300D0
:100BF0009F0090309D0024309E0040309B000330C9
:100C00009C0000302000A3000030A4008F31442756
:100C1000853100302000A3000030A4008F314D2723
:100C2000853100302000A3000030A4008F313B2725
:100C300085312000EC010800F400700871040319EC
:100C4000222E232E342E7435C93E8600870170086B
:100C5000C03F7108C13F7208F3007408D53E86009A
:100C6000870173088100412E7435C93E86008701D3
:100C70008F30C03F0E30C13F7408D53E86008701DB
:100C8000810108002000A401A40A2100E518492ED2
:100C90004A2E602E6511FF302000A300230821009A
:100CA000DF008E31A32686318E31A92686318E3122
:100CB000A6268631210064082000A3002308A40092
:100CC000200024080800C7340E3429340F341934A6
:100CD0000F34FE340234F13403340B340F341D343A
:100CE0000534CC340E34D1340E34D6340E34DB34E7
:100CF0000E34E0340E34E5340E34EA340E34EF347E
:100D00000E347A3405342000A400A501A50A210080
:100D1000E5188B2E8C2EA02EE5142000A5012408AA
:100D20000319932E942E982E2100E301E30A9D2EA1
:100D30000230A30023082100E3008E31AC26863167
:100D4000200025080800203020002304A5000030E2
:100D50002404A60025089F3EA700FF30263DA800DA
:100D6000003028021A3003192702031CB82EBA2EAD
:100D70000130BB2E0030A900AA012908A3002A08CF
:100D8000A40008002000A7002708A5002508A60049
:100D9000CD2E0130A5002508A707270886000130C1
:100DA00087000108031DD52ED62EC92E260827023E
:100DB000A300A401A31BA4030800200023089F3E56
:100DC000A500FF30243DA600003026021A3003198A
:100DD0002502031CEC2EEE2E0130EF2E0030A70072
:100DE000A8012708A3002808A40008002000230861
:100DF000BF3EA500FF30243DA600003026021A3079
:100E000003192502031C052F072F0130082F00307E
:100E1000A700A8012708A3002808A40008002000B4
:100E200029089F3EAB00FF302A3DAC0000302C0269
:100E30001A3003192B0203181E2F1F2F262F5F3085
:100E40002905A90000302A05AA00262F08007908E4
:100E500086008701403FF000413FF1007908023EE3
:100E60008600870101088F319B2787310030F5000C
:100E7000F600F7018F3172278731023008007908B8
:100E800086008701403FF000413FF1007908023EB3
:100E90008600870101088F319B2787310030F500DC
:100EA000F600F7018F317227873102300800873151
:100EB0009C2787318B170B178431E8248731293021
:100EC0002200D6009630D5007F30890B652FD50BD8
:100ED000652FD60B652F5C2F80312828B13021007B
:100EE000B3003308B40030082000E80021002F08C8
:100EF0002000E700B4302100B30033082000E900EF
:100F000000308431B224873108002000A60021007F
:100F1000E51D8B2F8C2F9B2F20002608A500250870
:100F20002100E000200024082100E2002000230826
:100F30002100E100E51108008F31212787318F3131
:100F40005627873184317A2487318F315F27873163
:100F50008E31BE2687318531F62587310800003471
:100F60000034A134A234A334A434A534A634A73465
:100F7000A834A934AA34AB34AC34AD34AE34AF3475
:100F80000230F0000030F10079088F319B27873163
:100F90000030F500F600F7018F31722787310230FB
:100FA00008000130F0000030F10079088F319B27F4
:100FB00087310030F500F600F7018F317227873155
:100FC000023008000130F0000030F10079088F3164
:100FD0009B2787310030F500F600F7018F3172272B
:100FE0008731043008002400951AF72FF82FFF2FBF
:100FF00094010830950096014F3092009516080034
:101D1E00013008002400961408002400161508004F
:101D2E0024009615080024001108080020009115C3
:101D3E0008002000911108002000911108002400D5
:101D4E0095120800210091110800240016140800B5
:101D5E00210091150800240096161616080024007E
:101D6E0096121616080085314C258E310800163055
:101D7E00210097000800F000700824009100080070
:101D8E002100E510E4010E3008008E3191268E31CF
:101D9E00013008008E3191268E31023008008E31CE
:101DAE0091268E31013008008E3194268E3100300E
:101DBE0008008E31B6268E31053008008E31B226DF
:101DCE008E310A3008008E31B2268E31093008006D
:101DDE002100E510E4010E30080000308631832624
:101DEE008E3108002400160E890C890C013908006A
:101DFE00640080010131890B002F0034FE001200B7
:101E0E001E00FE0B062F0034210065108E31972622
:101E1E008F31043008002000A40024088F31682779
:101E2E008F310800210065145F358E31C2268F3147
:101E3E000330080032009101920193019401950143
:101E4E00960108002100651403145F0D8E31C22621
:101E5E008F3105300800200024082100ED002000FD
:101E6E0023082100EC000800200024082200D200E4
:101E7E00200023082200D1000800200024082100A1
:101E8E00EF00200023082100EE00080020002408A7
:101E9E002200D400200023082200D30008002400D2
:101EAE0094010830950096014F309200951208006B
:101EBE006030320099009B019D0107309F009E010A
:101ECE0008002000A300111E6D2F6E2F6A2F23080D
:101EDE0023009A0008007608F1007508F0007708D4
:101EEE00F8007808F200003086311C268F31080089
:101EFE0020002908A4002808A3002A08AB002B08FC
:101F0E00A50002308531CF258F3108002000290829
:101F1E00A4002808A3002A08AB002B08A500003057
:101F2E008531CF258F310800F3002100E51DA02F4C
:101F3E00A12FAA2F7308F2007208E0007108E200C8
:101F4E007008E100E51108000230F0000030F100E9
:101F5E0079088F319B278F310030F500F600F7019D
:101F6E008F3172278F31043008000130F0000030BD
:101F7E00F10079088F319B278F310030F500F60084
:101F8E00F7018F3172278F31023008000230F000D6
:101F9E000030F10079088F319B278F310030F5002A
:101FAE00F600F7018F3172278F31023008000130B1
:101FBE00F0000030F10079088F319B278F3100300F
:101FCE00F500F600F7018F3172278F3104300800CB
:101FDE000230F0000030F10079088F319B278F31ED
:101FEE000030F500F600F7018F3172278F31043083
:0C1FFE000800253478340A340D34003417
:020000040001F9
:08000000FF3FFF3FFF3FFF3F00
:08000E00EC3FF33FFF3FFF3F11
:00000001FF
