:1000000080312828053008007E1480310B1F092814
:100010000A2826282100111D0E280F281B28200041
:10002000111D132814281B28210044088A004308A6
:100030000A00803126282100911D1F28202826280B
:100040002000911D24282528262814287E10090028
:1000500080312A288731FF278031FD009731D22750
:100060008031EC00EA01EB01A03084000030850013
:100070002C308831432080312030840001308500CD
:1000800020308831432080317E1020008C31062CB6
:10009000200034088039B9003908BE003435B90071
:1000A0003908C400B31F552856285728441444085B
:1000B00003195B285C286B28440A031D602861280B
:1000C00069280030B4000030B3000030B2000030C6
:1000D000B100B31773280030B4000030B300003013
:1000E000B2000030B10038088039B9003908BE06C6
:1000F0003835B9003908C300B71F7F288028812808
:10010000431443080319852886289528430A031DAC
:100110008A288B2893280030B8000030B7000030C0
:10012000B6000030B500B7179D280030B800003089
:10013000B7000030B6000030B50043080319A1280D
:10014000A228A7284408031DA628A728B028003005
:10015000B4000030B3000030B2000030B1009E2A7D
:100160003108B9003908A30037088A315422803198
:1001700020002408CA002308C9004908B900BA01B0
:10018000BB01BC013C08C2003B08C1003A08C000EA
:100190003908BF004A08B900BA01BB01BC013C08DC
:1001A000C8003B08C7003A08C6003908C500320835
:1001B000B9003908A30036088A3154228031200062
:1001C0002408CA002308C9004908B900BA01BB01C4
:1001D000BC013908BF073A08C03D3B08C13D3C0897
:1001E000C23D4A08B900BA01BB01BC013908C507C4
:1001F0003A08C63D3B08C73D3C08C83D3308B90036
:100200003908A30035088A3154228031200024089F
:10021000CA002308C9004908B900BA01BB01BC01E2
:100220003908BF073A08C03D3B08C13D3C08C23D04
:100230004A08B900BA01BB01BC013908C5073A0830
:10024000C63D3B08C73D3C08C83D0830BF35C00D22
:10025000C10DC20D890B26293208B9003908A30047
:1002600035088A315422803120002408CA0023082E
:10027000C9004908BF074A08C03D0030C13DC23D22
:100280003108B9003908A30036088A315422803178
:1002900020002408CA002308C9004908BF074A08EB
:1002A000C03D0030C13DC23D0830BF35C00DC10D5D
:1002B000C20D890B55293108B9003908A30035084A
:1002C0008A315422803120002408CA002308C90042
:1002D0004908BF074A08C03D0030C13DC23D320851
:1002E000B9003908A30037088A3154228031200030
:1002F0002408CA002308C9004908C5074A08C63DA2
:100300000030C73DC83D3308B9003908A30036089E
:100310008A315422803120002408CA002308C900F1
:100320004908C5074A08C63D0030C73DC83D3308E7
:10033000B9003908A30037088A31542280312000DF
:100340002408CA002308C9004908B9004A08BA00AD
:10035000BB01BC010830B935BA0DBB0DBC0D890B12
:10036000AB293908C5073A08C63D3B08C73D3C08DC
:10037000C83D3F08B9004008BA004108BB00420828
:10038000BC001830BC36BB0CBA0CB90C890BC229A6
:100390003908C5073A08C63D3B08C73D3C08C83D7B
:1003A0000830BF35C00DC10DC20D890BD1294408DD
:1003B0004307B900BA01BA0D3908823EC900FF30BF
:1003C0003A3DCA00FA290130C535C60DC70DC80D22
:1003D000890BE429C21FED29EE29EF2945140130CC
:1003E000BF35C00DC10DC20D890BF029FF30C90703
:1003F000FF30CA3DC71FFD29FE29E329C301C21FE3
:10040000022A032A1F2AFF303F05B900FF304005AA
:10041000BA00FF304105BB007F304205BC003C08FC
:100420003B043A0439040319162A172A1A2AC3016D
:10043000C30A1F2A451C1D2A1E2A1F2A172A4308E1
:100440000319232A242A4C2A0130C5070030C63D4F
:100450000030C73D0030C83D481C2F2A302A4C2AA6
:100460004508B9004608BA004708BB004808BC0068
:100470000130BD00BC37BB0CBA0CB90CBD0B3A2A1D
:100480003C08C8003B08C7003A08C6003908C50048
:100490000130C9070030CA3D4A08803AB9008030AF
:1004A0003902031D552AFF304902031C582A592AD4
:1004B000632A7F302000C8008030C7000030C600AB
:1004C0000030C500922A20004A08803AB9008030E6
:1004D0003902031D6D2A013049020318702A712A5E
:1004E0007C2A00302000C8000030C7000030C60061
:1004F0000030C500BE01922A20004908B900390821
:10050000C400FF30C505FF30C6057F30C705003089
:10051000C805441C8C2A8D2A8E2AC7174436B90078
:100520003908C8003E08B9003908C8044808B400B2
:100530004708B3004608B2004508B100080028305B
:100540002100DC005C082000AC006B308D314A25B6
:1005500082312100DD005D08CB002930DC005C0821
:100560002000AC006B308D314A2582312100DD0046
:100570005D08CA002A30DC005C082000AC006B304B
:100580008D314A2582312100DD005D08C9002B3004
:10059000DC005C082000AC006B308D314A258231D4
:1005A0002100DD005D08C8002C30DC005C08200064
:1005B000AC006B308D314A2582312100DD005D08B1
:1005C000C7002D30DC005C082000AC006B308D31A2
:1005D0004A2582312100DD005D08C6004B08DC00A1
:1005E000DD014A08DE00DF015E08DF00DE015C0895
:1005F0005E07E5005D085F3DE6004908DC00DD01BF
:100600004808DE00DF015E08DF00DE015C085E07EF
:10061000E3005D085F3DE4004708DC00DD014608BB
:10062000DE00DF015E08DF00DE015C085E07E1003E
:100630005D085F3DE20005302100DD000F30DC0089
:10064000F130890B212BDC0B212BDD0B212B3A30D8
:100650002100D8009030D9006608DB006508DA0078
:1006600089318021823143302100D8009030D90077
:100670006408DB006308DA008931802182314C3064
:100680002100D8009030D9006208DB006108DA0050
:100690008931802182313A302000B4003F30B300EC
:1006A000E330B200B030B100210065082000A300A3
:1006B000210066082000A400890D893B8909A50056
:1006C000A60001308E316626823120002608B8004F
:1006D0002508B7002408B6002308B500803148205B
:1006E0008231210065082000A30021006608200057
:1006F000A400890D893B8909A500A60001308E312F
:100700006626823120002608B8002508B700240894
:10071000B6002308B5003A30B4003F30B300E330F0
:10072000B200B030B100803148208231200034085E
:10073000CE003308CD003208CC003108CB008D311B
:10074000F125823120004C082100E60020004B08F2
:100750002100E50063082000A300210064082000B8
:10076000A400890D893B8909A500A60001308E31BE
:100770006626823120002608B8002508B700240824
:10078000B6002308B5003A30B4003F30B300E33080
:10079000B200B030B10080314820823120003408EE
:1007A000CE003308CD003208CC003108CB008D31AB
:1007B000F125823120004C082100E40020004B0884
:1007C0002100E30061082000A3002100620820004E
:1007D000A400890D893B8909A500A60001308E314E
:1007E0006626823120002608B8002508B7002408B4
:1007F000B6002308B5003A30B4003F30B300E33010
:10080000B200B030B100803148208231200034087D
:10081000CE003308CD003208CC003108CB008D313A
:10082000F125823120004C082100E20020004B0815
:100830002100E1002030D8009030D9006608DB00AC
:100840006508DA008931802182312D302100D800FD
:100850009030D9006408DB006308DA008931802118
:10086000823108002000CB003E08D2003F08D300B0
:100870004008D4004108D5004208D6004308D700FC
:100880004408D8004508D90052308600003087005F
:10089000473FC600C61B4D2C4F2C0130502C00305A
:1008A0002000C700C8014708D0004808D100500800
:1008B000510403195C2C5D2C7B2CD209D309D4097B
:1008C000D509D609D709D809D909D20A031D7B2C25
:1008D000D30A031D7B2CD40A031D7B2CD50A031DD0
:1008E0007B2CD60A031D7B2CD70A031D7B2CD80A30
:1008F000031D7B2CD90A2100C21B7F2C802C852C48
:10090000FD302000EA05FF30EB0521004208803A67
:100910002000C60080304602031D912C01302100CA
:1009200041020318942C952C9B2C01302000CC0004
:100930000030CD00A32C210042082000CD00210072
:1009400041082000CC00210040082000CF002100F9
:100950003F082000CE0050085104031DB02CB12CDC
:10096000B52C6A1DB42CB52CB92CFF30CE07FF3046
:10097000CF3D1F30DA000030DB002200BF01292DFF
:10098000FF302000DA07FF30DB3D0A30A300A4016E
:10099000A501A601A701A801A901AA015208AB005F
:1009A0005308AC005408AD005508AE005608AF001F
:1009B0005708B0005808B1005908B2008F3113270A
:1009C000843120002408B7002308B6008931F721BC
:1009D000843120003608303EC6005A08203E86008A
:1009E0000130870046088100FF30CC07FF30CD3D45
:1009F000FF30CE07FF30CF3D0A30A300A401A50190
:100A0000A601A701A801A901AA015208AB00530839
:100A1000AC005408AD005508AE005608AF005708AA
:100A2000B0005808B1005908B20085319E258431C4
:100A300020002308D2002408D3002508D40026086B
:100A4000D5002708D6002808D7002908D8002A088A
:100A5000D90020005B08803AC60080304602031DA2
:100A6000332D01305A02031C362D372D642D200002
:100A700052085304540455045604570458045904A6
:100A8000031D432D442DC02C4D08803AC6008030F4
:100A90004602031D4D2D01304C020318502D512DDF
:100AA000C02C20004F08803AC60080304602031D4B
:100AB0005B2D01304E02031C5E2D5F2D642D200046
:100AC000EA18632D642DC02C200050085104031D2A
:100AD0006A2D6B2D6F2D6A1D6E2D6F2D8B2DFF30A6
:100AE000DA07FF30DB3D50085104031D782D792DC6
:100AF0007E2D2B30C9000030CA00822D2D30C90058
:100B00000030CA004908C6005A08203E860001305D
:100B10008700460881005A08203EC6004608B500F6
:100B20004F08B7004E08B6004B088731982784312C
:100B300020003608BF003508BE0008002000B501BF
:100B40002330860000308700473FB300B31FA92D34
:100B5000AA2DCC2D2000A309A409A509A609A7093F
:100B6000A809A909AA09A30A031DC92DA40A031DDE
:100B7000C92DA50A031DC92DA60A031DC92DA70A43
:100B8000031DC92DA80A031DC92DA90A031DC92DBE
:100B9000AA0A2000B501B50A2B3086000030870074
:100BA000473F2000B300B31FD62DD72DFB2D2000CB
:100BB000AB09AC09AD09AE09AF09B009B109B20979
:100BC000AB0A031DF62DAC0A031DF62DAD0A031D5D
:100BD000F62DAE0A031DF62DAF0A031DF62DB00A41
:100BE000031DF62DB10A031DF62DB20A01302000B7
:100BF000B3003308B5063630860000308700083071
:100C00002000B30000301E00B30B032E2308240481
:100C1000250426042704280429042A040319112E74
:100C2000122E6E2EB401B40A212EA335A40DA50DEB
:100C3000A60DA70DA80DA90DAA0D0130B30033080C
:100C4000B407AA1F242E252E152EB635B70DB80DC4
:100C5000B90DBA0DBB0DBC0DBD0D2A083202031D26
:100C60004B2E29083102031D4B2E28083002031D8C
:100C70004B2E27082F02031D4B2E26082E02031D84
:100C80004B2E25082D02031D4B2E24082C02031D7C
:100C90004B2E23082B02031C4E2E4F2E602E2308B2
:100CA000AB022408AC3B2508AD3B2608AE3B270829
:100CB000AF3B2808B03B2908B13B2A08B23B3614A9
:100CC000AA36A90CA80CA70CA60CA50CA40CA30C66
:100CD0000130B402031D6D2E6E2E252E350803192A
:100CE000722E732E912EB609B709B809B909BA093F
:100CF000BB09BC09BD09B60A031D912EB70A031D25
:100D0000912EB80A031D912EB90A031D912EBA0A1D
:100D1000031D912EBB0A031D912EBC0A031D912EAB
:100D2000BD0A20003608A3003708A4003808A50033
:100D30003908A6003A08A7003B08A8003C08A9000B
:100D40003D08AA0008002100D40020005C088600AD
:100D50008701403FDE00413FDF005E0884005F08FE
:100D600085001200253A031DB62EB72E722F5C089F
:100D7000860087010130810741310318810A210073
:100D8000BF01C0012000EA01EB01FF302100C100DA
:100D9000FF30C20020005C0886008701403FDE0073
:100DA000413FDF005E0884005F0885001200643A5E
:100DB0000319DB2EDC2EED2E5C0886008701403FF8
:100DC000DE00413FDF005E0884005F0885001200FE
:100DD000693A031DEC2EED2E3B2F5C08860087013F
:100DE0000130810741310318810A5D0886008701BF
:100DF00001088400850102308107003FDE00013FC9
:100E0000DF005E082100CC0020005F082100CD003B
:100E1000890D893B8909CE00CF00D000D100D200D6
:100E2000D3004C082000BE0021004D082000BF0068
:100E300021004E082000C00021004F082000C10002
:100E4000210050082000C200210051082000C300EA
:100E5000210052082000C400210053082000C500D2
:100E60002100540884313224863120003F08DD00FF
:100E70003E08DC00972F5C0886008701403FDE00BB
:100E8000413FDF005E0884005F0885001200253ABC
:100E9000031D4B2F4C2F672F5C0886008701013004
:100EA000810741310318810A2530A5000030A600D2
:100EB000210054082000DE005E08A7008C31752454
:100EC000863101302000DC000030DD00972F5C0807
:100ED000860087010130810741310318810ADC0156
:100EE000DD01972F5C0886008701403FDE00413F0F
:100EF000DF005E0884005F0885000008E000E10173
:100F00006008A5006108A600210054082000E20046
:100F10006208A7008C317524863120005C088600A9
:100F200087010130810741310318810A612F0800D0
:100F30002000BD006A1C9D2F9E2FA62F3D08B800E3
:100F40003808AD0035088A31EB2287312000B71B05
:100F5000AA2FAB2FB02F3708BC003608BB00B22F2A
:100F6000BB01BC01B901BA01C62F20302000A50089
:100F70000030A6003D08B8003808A7008C31752461
:100F8000873101302000B9070030BA3D3A08803A75
:100F9000B8003C08803A3802031DD02F3B083902C4
:100FA000031CD32FD42FB52F20006A18D82FD92F88
:100FB000E12F3D08B8003808AD0035088A31EB2232
:100FC0008731200035088931DC21873120003B083A
:100FD0002307B5003C08243DB60008000130F000AE
:100FE0000030F10079088831E62087310030F500C3
:100FF000F600F7018831B0208731043008000F3443
:10100000013008001630210097000800F000700839
:101010002400910008002100BC10BB010E30080024
:101020009731D3278831013008009731D327883191
:10103000023008009731D3278831013008009731FA
:10104000D6278831003008009731F82788310530DD
:1010500008009731F42788310A3008009731F427C7
:101060008831093008002100BC10BB010E30080097
:1010700000308A311322883108002400160E890CB2
:10108000890C01390800640080010131890B442872
:10109000003421003C109731D927883104300800F2
:1010A0002000A40024088831A620883108002100EF
:1010B0003C14363588310620883103300800320070
:1010C000910192019301940195019601080021007C
:1010D0003C140314360D8831062088310530080091
:1010E000200024082100C400200023082100C300A0
:1010F0000800200024082100EA0020002308210025
:10110000E9000800200024082100EE002000230848
:101110002100ED000800200024082100EC00200040
:1011200023082100EB0008002400940108309500FA
:1011300096014F30920095120800603032009900FD
:101140009B019D0107309F009E0108002000A30025
:10115000111EAB28AC28A828230823009A000800F9
:101160007608F1007508F0007708F8007808F200BA
:1011700000308A317822883108002400951AC1286D
:10118000C228C92894010830950096014F3092007A
:101190009516080020002908A4002808A3002A08A2
:1011A000AB002B08A50002308A31C4228831080028
:1011B00020002908A4002808A3002A08AB002B0857
:1011C000A50000308A31C42288310800F3002100D4
:1011D000BC1DEB28EC28F5287308F2007208B70054
:1011E0007108B9007008B800BC1108000230F000A6
:1011F0000030F10079088831E62088310030F500B0
:10120000F600F7018831B020883104300800013041
:10121000F0000030F10079088831E6208931003093
:10122000F500F600F7018831B0208931043008005C
:101230000130F0000030F10079088831E620893172
:101240000030F500F600F7018831B0208931023016
:1012500008000230F0000030F10079088831E62003
:1012600089310030F500F600F7018831B02089316E
:10127000023008000230F0000030F10079088831B7
:10128000E62089310030F500F600F7018831B02002
:101290008931043008000130F0000030F100790895
:1012A0008831E62089310030F500F600F7018831F9
:1012B000B0208931023008000230F0000030F10027
:1012C00079088831E62089310030F500F600F70111
:1012D0008831B02089310230080088315F2089319F
:1012E0008831942089318C313D24893188319D2089
:1012F00089318831022089318A319E228931080062
:10130000DA302000E8006808E90021005908D6001A
:101310005808D50069302000E80068082100D7008F
:1013200000308B319D23893108002000A600210068
:10133000BC1D9B299C29AB2920002608A500250857
:101340002100B700200024082100B9002000230854
:101350002100B800BC110800790886008701403FD1
:10136000F000413FF1007908023E86008701010844
:101370008831E62089310030F500F600F701883128
:10138000B020893102300800790886008701403F8B
:10139000F000413FF1007908023E86008701010814
:1013A0008831E62089310030F500F600F7018831F8
:1013B000B0208931023008002000A7002708A500CE
:1013C0002508A600E7290130A5002508A70727085A
:1013D0008600013087000108031DEF29F029E32969
:1013E00026082702A300A401A31BA40308002000D1
:1013F0003708803AB80080303802031D012A0130D6
:1014000036020318042A052A122A20003609B800D9
:101410003709B900B80A0319B90A3808B6003908FB
:10142000B700122A08002000A400A501A50A210087
:10143000BC181B2A1C2A302ABC142000A501240831
:101440000319232A242A282A2100BA01BA0A2D2A9C
:101450000230A30023082100BA009731EE278A3119
:101460002000250808002000A401A40A2100BC18BF
:101470003A2A3B2A512A3C11FF302000A3002308BE
:101480002100B6009731E5278A319731EB278A3161
:101490009731E8278A3121003B082000A300230868
:1014A000A4002000240808002000AB00A701A80128
:1014B0002308A500A6012508A9002608AA002B1CC0
:1014C000622A632A672A2908A7072A08A83D01304B
:1014D000A935AA0D890B682A0310AB0C2B08031D34
:1014E000722A732A5F2A2808A4002708A30008008C
:1014F000F4007008710403197E2A7F2A902A74353B
:10150000A03E860087017008C03F7108C13F720885
:10151000F3007408AC3E86008701730881009D2AA1
:101520007435A03E860087010030C03F0830C13FBF
:101530007408AC3E86008701810108000830230052
:101540009F0090309D0024309E0040309B0003306F
:101550009C0000302000A3000030A40088318220CD
:101560008A3100302000A3000030A40088318B2095
:101570008A3100302000A3000030A4008831792097
:101580008A312100C50108002000A7002308240497
:101590000319CB2ACC2ADD2A2735A03E86008701F5
:1015A0002308C03F2408C13F2508A6002708AC3EF9
:1015B0008600870126088100EA2A2735A03E86009A
:1015C00087010030C03F0830C13F2708AC3E86008D
:1015D0008701810108002000B400B201B301032B90
:1015E0003108AE00AF012E08A5002F08A6002D0877
:1015F000B0003008A7008C3175248A3101302000FA
:10160000B2070030B33D32083407AE002E08860022
:10161000013087000108AF002F08B1003108031D19
:10162000122B132BF02A080021003C100230FA0084
:101630007A08BB00232B88311A208B313F2B88314D
:101640001F208B313F2B2E08FA007A08F900043056
:10165000A03E86008701413F8A00403F0A008B314F
:10166000FB00FC017C08003A0319372B1F2B7B0879
:10167000023A03191B2B013A03191B2B1F2B0800DD
:101680009731E2278B3121003C1C472B482B562BEE
:1016900088313D208B31003A03194F2B502B562BAC
:1016A0000F302000A00020082100BA0021003A08D5
:1016B0002000A000A101A035A10D0030200784006A
:1016C0009030213D8500013F8A00003F0A008B31A8
:1016D0002000A20022082100BA0008002100BC1549
:1016E0007E2B88311A208B319C2B9731DF278B3151
:1016F00003309C2B88311F208B319C2B2C08FA0047
:101700007A08F90021088A0020080A008B31FB00C2
:10171000FC017C08003A03198E2B7A2B7B08013AD6
:1017200003197A2B033A0319712B013A0319712B10
:10173000073A0319752B7A2B08002000E5002100D9
:1017400056082000E700210055082000E60021008F
:10175000BD01BE01C12B6630E3006308DC0021003F
:1017600057082000E4006408DD0065088631A326E0
:101770008B3120005C082100BD0720005D0821009E
:10178000BE3D200066088400670885001200031D26
:10179000CA2BCB2BAB2B21003E08D6003D08D50031
:1017A00008002000AF0020002F088C31FE248B3170
:1017B000003A0319DC2BDD2BD32B07302000A800C7
:1017C0000930A9002D30AE002E08AA008831D8209B
:1017D0008B3101302000A3000030A4002C3089316F
:1017E00095218B3100302000A800A900AA01883182
:1017F000CA208B31883138208B318A3133228B31AA
:10180000013A0319042C052CFD2B080089316D21A8
:101810008C318B170B1720302100E7006708200060
:10182000AC00C8302100E80068082000AD006B3033
:101830008B31D1238C312E302100E7006708200046
:10184000AC00C0302100E80068082000AD006B301B
:101850008B31D1238C3182319F228C312930210070
:10186000E8009630E7007F30890B342CE70B342CEE
:10187000E80B342C2B2C8031282822008C018D0180
:101880008E01373021008C0070308D00FF308E00CB
:10189000E93023008E0050308D0037308C0024005A
:1018A0008D018C018E0125008C018D018E01373058
:1018B00026008C00F0308D00FF308E003F30270076
:1018C0008C00F0308D00FF308E000D303C00A40005
:1018D0001230A00014303D009F001930A1001830D4
:1018E000A20011303C00A1000800200027080319C5
:1018F0007A2C7B2C802C2708031D7F2C802C852C98
:101900002508883150208C31B72C2708083E8600E6
:1019100087011600010403198E2C8F2CAD2C27088B
:10192000083E86008701403FA800413FA9002708E4
:10193000023E86008701403FAA00413FAB002B08D2
:10194000803AAC002908803A2C02031DA92C2808F3
:101950002A020318AC2CAD2CB72C20002708023E1D
:10196000860087010130810741310318810A080090
:101970009731DC278C31FA00210037088600870177
:101980007A0881000130FA007A08B7070130B802FE
:101990000030B93B380839040319CF2CD02CD52C92
:1019A0009731F8278C310530FD2CBC15DF2C8831A0
:1019B0002E208C31FD2C883129208C31FD2C2C08D7
:1019C000FA007A08F90021088A0020080A008C3100
:1019D000FB00FC017C08003A0319EF2CDB2C7B0890
:1019E000013A0319DB2C033A0319D72C013A0319E6
:1019F000D72C073A0319DB2CDB2C08002000A600AB
:101A0000A701A70A21003C19062D072D472D20000C
:101A10002608A50025082100B600BC103C153C1086
:101A20000E302000A50025082100BA00F430B400D3
:101A30000130B500BC150030A0000830A100AC0199
:101A40000030A2000830A300AD010030A40008302F
:101A5000A500AE010030A6000830A700AF0102309B
:101A6000A8000030A900B001FC302000A30017300E
:101A7000A400883170208C319731E5278C31883172
:101A8000BD208C319731F1278C312000A701200037
:101A9000270808002000AE002A30AD002D08B20053
:101AA0000230B0000030B10020002E088C31FE243E
:101AB0008D31003A03195D2D5E2D542D1830200014
:101AC000A8000930A9003230AD002D08AA008831E5
:101AD000D8208D3101302000A3000030A4002C302C
:101AE000893195218D3100302000A800A900AA017C
:101AF0008831CA208D31883138208D318A313322A6
:101B00008D312000AD002D08AF002F030319892D62
:101B10008A2D7E2D2F08031D8E2D8F2D902D9A2D11
:101B2000FF30B007FF30B13D30083104031D992D5F
:101B30009A2D542D3208080088313D208D31003A0D
:101B40000319A32DA42DD42DB12D883110208D3152
:101B5000F02D883115208D31F02D88311F208D31E9
:101B6000F02D21002F08FA007A08F9000630A03E77
:101B700086008701413F8A00403F0A008D31FB000B
:101B8000FC017C08003A0319C62DAD2D7B08013AF3
:101B90000319AD2D033A0319A52D013A0319A92DF7
:101BA000073A0319AD2DAD2D21003C101730A03E92
:101BB00086008701403F84008501810A0008883142
:101BC00006208D3101302100B8020030B93B3808C1
:101BD0003904031DEC2DED2DEF2D0630F02D0330D3
:101BE0000800031020004D0D4E0DCF004F08D5000A
:101BF0005508031DFC2DFD2D062E0030CE000030B3
:101C0000CD000030CC000030CB00652E4B08CF005B
:101C10004C08D0004D08D1004E08D2001F30D236FB
:101C2000D10CD00CCF0C890B0F2E4F08D3005308CA
:101C3000D400CD17FF30CB05FF30CC05FF30CD05EC
:101C40000030CE059630D502D51F272E282E402EE7
:101C50005508803A973E03182E2E2F2E302EFD2D3C
:101C60000130CE36CD0CCC0CCB0C890B312E013093
:101C7000CF004F08D507031D3E2E3F2E302E552E88
:101C800020305502031C452E462E502EFD2D0130CE
:101C9000CB35CC0DCD0DCE0D890B482E0130D502A4
:101CA0005508031D542E552E472E54080319592E3E
:101CB0005A2E652ECB09CC09CD09CE09CB0A0319C2
:101CC000CC0A0319CD0A0319CE0A08002000AB0084
:101CD0002B0803196C2E6D2E812EA61F702E712ECF
:101CE000812E2309AD002409AE002509AF00260985
:101CF000B000AD0A0319AE0A0319AF0A0319B00AFE
:101D0000892E2608B0002508AF002408AE0023085D
:101D1000AD002608250424042304031D902E912ED3
:101D20009A2E0030A6000030A5000030A40000303C
:101D3000A300122F9630A7002708AC00AA2E01306E
:101D4000A7002708AC070130B036AF0CAE0CAD0CC5
:101D5000890BA42EFE303005031DAF2EB02E9F2E12
:101D6000C42E0130A7002708AC070130AD070030B2
:101D7000AE3D0030AF3D0030B03D0130B036AF0C6D
:101D8000AE0CAD0C890BBE2EFF303005031DC92EE5
:101D9000CA2EB12ED42E0130AC020130AD35AE0DBD
:101DA000AF0DB00D890BCE2EAF1BD72ED82EDE2E49
:101DB00002302C020318DD2EDE2ECB2E2C18E12E45
:101DC000E22EEA2EFF30AD05FF30AE057F30AF05C5
:101DD000FF30B0050310AC0C2C08A700A801A90126
:101DE000AA011830A735A80DA90DAA0D890BF22E4E
:101DF0002708AD042808AE042908AF042A08B00457
:101E00002B080319042F052F0A2FA61F082F092FAF
:101E10000A2FB0173008A6002F08A5002E08A4002E
:101E20002D08A30008002000B5012B3086000030EB
:101E30008700473FB300B31F1E2F1F2F412F2000E5
:101E4000AB09AC09AD09AE09AF09B009B109B209D6
:101E5000AB0A031D3E2FAC0A031D3E2FAD0A031D26
:101E60003E2FAE0A031D3E2FAF0A031D3E2FB00AC0
:101E7000031D3E2FB10A031D3E2FB20A2000B501FB
:101E8000B50A2330860000308700473F2000B300AA
:101E9000B31F4B2F4C2F6B2F2000A309A409A509BA
:101EA000A609A709A809A909AA09A30A031D6B2F56
:101EB000A40A031D6B2FA50A031D6B2FA60A031D81
:101EC0006B2FA70A031D6B2FA80A031D6B2FA90AEE
:101ED000031D6B2FAA0A20002308240425042604CE
:101EE0002704280429042A040319772F782FCB2FDD
:101EF000B401B40A872FA335A40DA50DA60DA70D17
:101F0000A80DA90DAA0D0130B3003308B407AA1F0C
:101F10008A2F8B2F7B2F2A083202031DA92F290815
:101F20003102031DA92F28083002031DA92F2708FD
:101F30002F02031DA92F26082E02031DA92F2508F5
:101F40002D02031DA92F24082C02031DA92F2308ED
:101F50002B02031CAC2FAD2FBD2F2308AB0224088E
:101F6000AC3B2508AD3B2608AE3B2708AF3B280815
:101F7000B03B2908B13B2A08B23BAA36A90CA80CF1
:101F8000A70CA60CA50CA40CA30C0130B402031DD5
:101F9000CA2FCB2F8B2F35080319CF2FD02FEE2F21
:101FA000AB09AC09AD09AE09AF09B009B109B20975
:101FB000AB0A031DEE2FAC0A031DEE2FAD0A031D65
:101FC000EE2FAE0A031DEE2FAF0A031DEE2FB00A4F
:101FD000031DEE2FB10A031DEE2FB20A20002B08BD
:101FE000A3002C08A4002D08A5002E08A6002F0889
:101FF000A7003008A8003108A9003208AA0008008C
:102000000B34083467340834573408349C340D34A6
:10201000B8340C34493408346E340B34103408347A
:10202000153408341A3408341F340834243408347E
:10203000293408342E3408343334083414340B343F
:10204000203458345F346E34653477343A34203475
:10205000253464340A340D340034203459345F3468
:102060006E34653477343A342034253464340A3499
:102070000D340034203458343A3420342534643458
:102080000A340D340034203459343A3420342534A1
:1020900064340A340D34003420345A343A34203451
:0A20A000253464340A340D34003492
:102FA4000F34240096140800240016150800240089
:102FB4009615080024001108080020009115080047
:102FC400200091110800200091110800240095129E
:102FD40008002100911108002400161408002100A3
:102FE400911508002400961616160800240096125F
:0C2FF400161608008B31402397310800AE
:020000040001F9
:08000000FF3FFF3FFF3FFF3F00
:08000E00EC3FF33FFF3FFF3F11
:00000001FF
